:03000000020813E0
:0C081300787FE4F6D8FD75812702085AB2
:06060700012500012600A0
:0A0E9100EFD3940040031F80F72206
:100E5F00AE07EED3940040087FFF120E911E80F272
:010E6F002260
:100D6800C3EF9525F526601A8F25FF120D18AF26BB
:100D780012089FAF26120C36AF26120C94AF26121B
:020D88000185E3
:010D8A002246
:100B870043BA807594FFE4F59375923FF591759696
:100B9700FCF595F5B275B1C075B418F5B375CA0C07
:100BA700F5C9120E7012001E120CEED2AF1206D942
:0E0BB700120CC1120EA2120D68120E9B80EFDE
:10060D00608000DA00000000000000000000000023
:10061D0000000000000000000000000000000000CD
:10062D0000000000000000000000000000000000BD
:10063D0000000000000000000000000000000000AD
:10064D00000000000000000000000000000000009D
:10065D00000000000000000000000000000000008D
:10066D00000000000000000000000000000000007D
:10067D00000000000000000000000000000000006D
:08068D000000000041015A00C9
:070C6600F0740590FE81F01F
:100C6D007FFA90015AE0701E90FE82E020E606AEFB
:100C7D00071FEE70F390FE82E054BFF0EF60079017
:060C8D00015AE04401F0F1
:010C9300223E
:07000300AC07E490015AF084
:10000A0090015AE0700A43BA8004120C6953BA7F0D
:01001A0022C3
:100DC60090015AE0701443BA8090FE86EFF090FED0
:0B0DD600817402F0120C6D53BA7F22F2
:100D420012000A7F5A120DC6120D52E4FF120DC68E
:100D520090015AE0700F43BA8090FE817403F01242
:060D62000C6D53BA7F2264
:100D8B00E4FF90015AE060012243BA8090FE817427
:0D0D9B0004F0120C6D90FE87E0FF53BA7F4C
:010DA8002228
:100E390090015AE0700C43BA8090FE82120C6653FE
:030E4900BA7F224B
:100E250090015AE0700D43BA8090FE8204120C6660
:040E350053BA7F220B
:100E810043BA8090FE817406F0120C6D53BA7F2232
:100DFB0043BA8043BA3090FE8074E0F090FE82E4F8
:050E0B00F053BA7F2244
:100B48008B178A188919120003EC25E0120D4EAF95
:100B580005120DC6120D52E51AD394004018AB17B2
:100B68000519E519AA187002051814F912011C12C2
:0F0B78000D4E151A80E1120E8190015AE0FF22F6
:100A56008B178A188919120003EC25E004120D4E33
:100A6600AF05120DC6120D52E51AD39401401C12A1
:100A76000D8BAB170519E519AA187002051814F99C
:100A8600EF120162120E39151A80DD120D8BAB17AB
:100A9600AA18A919EF120162120E25120E819001F1
:040AA6005AE0FF22F1
:100BC500120D427F12120DC6120D527F78120DC6FC
:100BD500120D52120E81120D4212000A7F5B120D88
:100BE500C6120D52120D8B8F80120E39120D8B8F7E
:090BF500A0120E25120E8180FEF3
:100BFE0000000000000000000000000000000000E7
:100C0E0000000000000000000000000000000000D6
:100C1E0000000000000000000000000000000000C6
:080C2E000000000000000000BE
:100695004201A400004101A60042019A0000420166
:1006A5009C000042019E00004101A0004201A10002
:0506B500004101A3005B
:04001E0075C1262260
:040E9B0043C110221D
:10078100E49001A7F0A3F0A3F0A3F0A37403F0E4B5
:100791009001A7F0E49001A8F09001A8E0FDC394B6
:1007A1000450129001A7E0FFD2041205229001A883
:1007B100E004F080E49001A7E004F0E0C394044079
:1007C100D3D29674FF9001A4F0A3F0E4FF120AFAC9
:1007D1009001A974AAF0E49001A7F09001AB740311
:1007E100F09001A7E02440FF7B017A0179A9751AF5
:1007F100017D12120B489001AAEFF06008A3E0FFFF
:1008010014F0EF70DC9001A7E004F0E0C394044021
:01081100CA1C
:0108120022C3
:100C94009001A6E0C39410502390019BE02FF090A4
:100CA400019AE03400F0D3A3E094C890019AE09450
:0C0CB4000040091204149001A6E004F0B6
:010CC0002211
:100C360090019DE02FF090019CE03400F09001A41B
:100C4600E0FEA3E0FFF47002EEF46013D390019D82
:0F0C5600E09F90019CE09E4006E4F0A3F0B29670
:010C6500226C
:10089F00E4F508F50990019FE02FF090019EE034F8
:1008AF0000F0D3A3E0946490019EE094004054E4E0
:1008BF00F0A3F0A3E02440FF7B007A007908751ABB
:1008CF00017D10120A56EF6003E4F5086308FFE498
:1008DF00F5099001A0E0FFAE09E508A8060880021F
:1008EF00C313D8FC24FF9204AD091205220509E5B4
:1008FF0009C3940440DC9001A0E004F0C3940440C9
:03090F0002E4F00F
:0109120022C2
:020185008F08E1
:10018700785B7C017D017BFF7A0B79FE7E007F38EF
:100197001200F69001A2E02508F09001A1E03400DA
:1001A700F0D3A3E094F49001A1E09401500302027C
:0101B700D96E
:1001B800E4F509F50AF50EF50DF50CF50B750F01CB
:0B01C80075100175115BF0A3F0F50944
:1001D300E4F512E50975F004A4245BF9740135F024
:1001E300FA7B018B0FF5108911E5092440FF751A7D
:1001F300107D30120A568F12E512703EF50AAB0FCE
:10020300AA10A911900001120135FF12011C4FFF22
:10021300E4FCFDFEE50E2FF50EEE350DF50DED3587
:100223000CF50CEC350BF50B74042511F511E435C5
:0A02330010F510050AE50AB404C432
:10023D000509E509C39404408DE47FC07E5DFDFC96
:10024D00AB0EAA0DA90CA80BD31201744013120208
:10025D00DA9001A67410F09001A4E4F0A37464F098
:10026D002274FF7F77FEFDFCAB0EAA0DA90CA80B27
:10027D00D31201744015E4FF120AFA9001A674100E
:10028D00F09001A4E4F0A374FAF022E47F317E0132
:10029D00FDFCAB0EAA0DA90CA80BD31201744016D0
:1002AD00E4FF120AFA9001A67410F09001A47402F2
:1002BD00F0A374EEF0229001A6E0C39410400D124D
:0C02CD00041474FF9001A4F0A3F0D2967A
:0102D9002202
:1002DA00E4900193F0A3F0A3F0A3F0A3F0A3F0A39A
:1002EA00F09001947403F0900194E0C364809480C8
:0502FA00500302041393
:1002FF00E4F513751403900194E02440FF7B017A19
:10030F00017996751A017D10120A568F13E5136045
:10031F0007AF141514EF70DEE513600302040A90A3
:10032F0001957403F0900195E0FFC36480948050B1
:10033F000302040AA3E0FEA807088002C313D8FC37
:10034F0020E003020401900195E0FF74017E00A8F4
:10035F0007088005C333CE33CED8F9C4F8540FC87D
:10036F0068FF900198EFF0751403900194E024401A
:10037F00FF7B017A017998751A017D19120B488F4D
:10038F0013E5136007AF141514EF70DE75140390A7
:10039F000194E02440FF7B017A017997751A017D62
:1003AF0014120A568F13E5136007AF141514EF706C
:1003BF00DE900197E0FF900195E0FE7411A806080A
:1003CF008002C333D8FCF45F900197F0751403904B
:1003DF000194E02440FF7B017A017997751A017D22
:1003EF0014120B488F13E513601AAF141514EF7026
:0B03FF00DE22900195E014F0020334B0
:09040A00900194E014F00202F1EB
:0104130022C6
:10041400E4900193F0A3F0A3F0A3F0900198F0907E
:100424000194F0900194E0C3648094844003020535
:0104340021A6
:10043500E4F513751403900194E02440FF7B017AE1
:10044500017996751A017D14120A568F13E513600A
:1004550007AF141514EF70DEE5136003020518905D
:100465000195F0900195E0FFC364809484400302F8
:100475000518A3E0FEA807088002C313D8FC30E0E6
:100485000302050F900195E0FF74017E00A807089F
:100495008005C333CE33CED8F9C4F8540FC868FFEE
:1004A500900197EFF0751403900194E02440FF7BD1
:1004B500017A017997751A017D19120B488F13E599
:1004C500136007AF141514EF70DE900196E0FF90EE
:1004D5000195E0FE7411A806088002C333D8FC4FCD
:1004E500900196F0751403900194E02440FF7B0180
:1004F5007A017996751A017D14120B488F13E5134D
:10050500601AAF141514EF70DE22900195E004F027
:0305150002046875
:09051800900194E004F0020427B4
:0105210022B7
:020AFA008F1358
:100AFC00E4900193F0A3F0A37403F09001A3E065DC
:100B0C00136038E513F0E4900193F0900193E02426
:100B1C0040FF7B007A007913751A017D14120B4883
:100B2C00900194EFF06008A3E0FF14F0EF70DC90FC
:0B0B3C000193E004F0E0C3940440D0FB
:010B4700228B
:100522007EFFEFC39404500DEDC394045007EF25F2
:10053200E025E02DFEEEB418004003020606900509
:1005420047F828287302058F0205940205990205CF
:100552009E0205A30205A80205AD0205B20205B777
:100562000205BC0205C10205C60205CB0205D00286
:1005720005D50205DA0205DF0205E40205E90205F6
:10058200EE0205F30205F80205FD020602A204923C
:10059200A222A20492A322A20492A422A20492A5BD
:1005A20022A20492A622A20492A722A2049280224C
:1005B200A204928122A204928222A20492C322A2C3
:1005C20004928322A204928422A204928522A2048B
:1005D200928622A204928722A204929022A20492DC
:1005E200CA22A20492CB22A204929122A204929243
:1005F20022A204929322A204929422A20492C422DE
:04060200A204929527
:0106060022D1
:0306BA0001270015
:100E7000538EBFE4F589758B30758DF8D28ED2AB69
:010E8000224F
:03001B00020E9F33
:030E9F00052732F2
:030EA200AF272255
:060982008F1B8D1C8B1D74
:10098800E4F51E751F03E51B2440FF7B007A007900
:100998001E751A017D14120A56EF6007AE1F151F47
:1009A800EE70E3EF7041E51D6011AE1C7411A806EE
:1009B800088002C333D8FCF51D8003E4F51DE51D4E
:1009C800F4521EE51D421E751F03E51B2440FF7BE4
:1009D800007A00791E751A017D14120B48EF600722
:0709E800AE1F151FEE70E3C6
:0109EF0022E5
:100AAA00706F655F6C65640A0053775F5665723ACA
:100ABA0056322E300A0048775F5665723A56322E01
:100ACA00300A004D617920323820323031380A003C
:100ADA0032313A31313A35310A0077726974652018
:100AEA00313D007265616420313D007665720A000D
:1006BD004200D400000124644100D6004100D9005D
:0B06CD004100D80001210002220000C3
:100DE100AD07AC06538EEF538EF7438E048CD6AF0E
:0A0DF100058FD753AFFB438E10228D
:100CEE00438E017FCC7EFF120DE1E598543F4440C8
:100CFE00F598D2BCD2ACD29C53A23F439710C202FD
:0A0D0E00E49000D6F09000D9F02226
:030023000209F0DF
:1009F000C0E0C083C082C0D075D000C0073098442A
:100A0000C29885992120033CE521640D6036900051
:100A1000D8E0FF04F074002FF582E43400F583E59C
:100A200021F0640A60079000D8E0B413D0D203909C
:100A300000D8E02400F582E43400F583E4F090006F
:020A4000D8F0EC
:100A420080B9309904C299C202D007D0D0D082D0E6
:040A520083D0E0323B
:1006D9002003030207807BFF7A0A79F5120E108E38
:1006E9000E8F0F750BFF750C0A750DF57B017A00DE
:1006F9007900120913EF70339000D8F0C2037BFF21
:100709007A0A79AA120E4C7BFF7A0A79B3120E4C37
:100719007BFF7A0A79C0120E4C7BFF7A0A79CD12D7
:100729000E4C7BFF7A0A79DA020E4C7BFF7A0A7942
:10073900E4120E108E0E8F0F750BFF750C0A750DD6
:10074900E47B017A007900120913EF700280227BA1
:10075900FF7A0A79ED120E108E0E8F0F750BFF7549
:100769000C0A750DED7B017A007900120913EF70FF
:08077900069000D8F0C2032233
:100CC1009000D9E0FF9000D6E0FE6F601F20021C6B
:100CD10074142EF582E43400F583E0F599D2029084
:0D0CE10000D6E004F0C394C04002E4F0220D
:100DA9009000D9E02414F582E43400F583EFF09043
:0D0DB90000D9E004F0C394C04002E4F02231
:100E4C0012011CFF600C120DA9740129F9E43AFA85
:030E5C0080EE2203
:100D18009000D8E07005F522F52322EF2523F5236E
:100D2800E43522F522D3E5239524E52294004009F1
:090D3800E4F522F5239000D8F047
:010D4100228F
:10081F00020B87E493A3F8E493A34003F68001F25D
:10082F0008DFF48029E493A3F85407240CC8C333DA
:10083F00C4540F4420C8834004F456800146F6DFA9
:10084F00E4800B0102040810204080900607E47E2C
:10085F00019360BCA3FF543F30E509541FFEE4939E
:10086F00A360010ECF54C025E060A840B8E493A365
:10087F00FAE493A3F8E493A3C8C582C8CAC583CA90
:10088F00F0A3C8C582C8CAC583CADFE9DEE780BE48
:0106D8000021
:10002600E709F608DFFA8046E709F208DFFA803EBC
:1000360088828C83E709F0A3DFFA8032E309F608A9
:10004600DFFA8078E309F208DFFA807088828C8311
:10005600E309F0A3DFFA806489828A83E0A3F608C5
:10006600DFFA805889828A83E0A3F208DFFA804C9F
:1000760080D280FA80C680D4806980F28033801076
:1000860080A680EA809A80A880DA80E280CA8033DF
:1000960089828A83ECFAE493A3C8C582C8CCC58357
:1000A600CCF0A3C8C582C8CCC583CCDFE9DEE78027
:1000B6000D89828A83E493A3F608DFF9ECFAA9F0A6
:1000C600EDFB2289828A83ECFAE0A3C8C582C8CCFC
:1000D600C583CCF0A3C8C582C8CCC583CCDFEADE15
:1000E600E880DB89828A83E493A3F208DFF980CC77
:1000F60088F0EF60010E4E60C388F0ED2402B40470
:100106000050B9F582EB2402B4040050AF23234516
:06011600822390007673C5
:10011C00BB010689828A83E0225002E722BBFE02E1
:09012C00E32289828A83E4932214
:10013500BB010CE58229F582E5833AF583E022507F
:1001450006E92582F8E622BBFE06E92582F8E222C9
:0D015500E58229F582E5833AF583E49322E3
:10016200BB010689828A83F0225002F722BBFE017C
:02017200F32276
:10017400EB9FF5F0EA9E42F0E99D42F0E89C45F0E1
:010184002258
:100913008B088A09890AAB0BAA0CA90D12011CFECC
:10092300AB08AA09A90A12011CFF6E702BEF600D18
:10093300E50F150F7002150E14450E70037F00228C
:100943007401250AF50AE43509F5097401250DF545
:100953000DE4350CF50C80BEAB08AA09A90A1201F7
:100963001CFDD3EE6480F8ED64809840037F012280
:0F097300AB0BAA0CA90D12011CFFC3ED9FFF22B5
:100E1000E4FFFE12011C600C0FEF70010E09E97077
:050E2000F20A80EF2240
:00000001FF
