:03000000020821D2
:0C082100787FE4F6D8FD7581400208687D
:0605A4000110000111002E
:0A0DB100EFD3940040031F80F722E7
:100D4E00AE07EED3940040087FFF120DB11E80F265
:010D5E002272
:100C9B00C3EF9510F511601A8F10FF120C23AF11D3
:100CAB001208ADAF11120B6FAF11120B9FAF1112D8
:020CBB00028CA9
:010CBD002214
:100AFC007594FFE4F59375923FF5917596FCF59519
:100B0C00F5B275B1C075B418F5B375CA0CF5C91248
:100B1C000D5F12001E120CDB120BF912074FD2AF35
:100B2C0012067B120BCC120DC2120C9B120DBB8049
:010B3C00EFC9
:1005AA00608000DA00000000000000000000000087
:1005BA000000000000000000000000000000000031
:1005CA000000000000000000000000000000000021
:1005DA000000000000000000000000000000000011
:1005EA000000000000000000000000000000000001
:1005FA0000000000000000000000000000000000F1
:10060A0000000000000000000000000000000000E0
:10061A0000000000000000000000000000000000D0
:07062A0000000000011200B6
:0A0C4D0090FE82F0740590FE81F025
:100C57007FFF90FE82E020E606AE071FEE70F3905E
:0C0C6700FE82E054BFF0EF600343120176
:010C7300225E
:0C0D8E0043BA807401120C5353BA7F2248
:100D110043BA8090FE86EFF090FE817402F0120CCF
:050D21005753BA7F22C8
:100C7400AC07E4F512120D8EEC25E0FF120D1112F3
:070C84000C8BAF05120D11EE
:100C8B0043BA8090FE817403F0120C5753BA7F2243
:10000300E4FF43BA8090FE817404F0120C5790FE13
:0600130087E0FF53BA7FF5
:0100190022C4
:0B0DA60043BA80E4120C4D53BA7F22C8
:0C0D9A0043BA807401120C4D53BA7F2242
:100D700043BA8090FE817406F0120C5753BA7F225A
:100CDB0043BA8090FE13E0440CF043BA3090FE8090
:0C0CEB0074E0F090FE82E4F053BA7F2227
:100B3D008B3D8A3E893F120C74E540D39400401CD6
:100B4D00AB3D053FE53FAA3E7002053E14F912028A
:100B5D0050FF120D11120C8B154080DD120D70AF70
:020B6D00122252
:100A5C008B3D8A3E893F120C74120D8EEC25E004FE
:100A6C00FF120D11120C8BE540D39401401C1200A7
:100A7C0003AB3D053FE53FAA3E7002053E14F9EF7E
:100A8C00120269120DA6154080DD120003AB3DAABF
:100A9C003EA93FEF120269120D9A120D70AF12228D
:0E0D8000000000000000000000000000000065
:1006310042016400000408272B2D2E41016600426F
:10064100015A000042015C000042015E00004101CC
:0B0651006000420161000041016300F5
:04001E0075C1262260
:040DBB0043C11022FE
:10074F00E4900167F0A3F0A3F0A3F0A37403F0E427
:10075F00FF120AAC90016974AAF0E4900167F0905F
:10076F00016B7403F0900167E02408F8E6FF7B014A
:10077F007A0179697540017D12120B3D90016AEF84
:10078F00F06008A3E0FF14F0EF70DA900167E00467
:10079F00F0E0C3940440C8E4900167F0E49001686E
:1007AF00F0900168E0FDC394045012900167E0FFE0
:1007BF00C2041204BF900168E004F080E490016766
:1007CF00E004F0E0C3940440D3C2967FFA120D4EBA
:1007DF007FFA120D4EE4900167F0E4900168F090FB
:1007EF000168E0FDC394045012900167E0FFD2044A
:1007FF001204BF900168E004F080E4900167E00408
:10080F00F0E0C3940440D3D29674FF900164F0A338
:01081F00F0E8
:0108200022B5
:100B9F00900166E0C39410502390015BE02FF0901A
:100BAF00015AE03400F0D3A3E094C890015AE094C6
:0C0BBF000040091203B9900166E004F048
:010BCB002207
:100B6F0090015DE02FF090015CE03400F0900164A3
:100B7F00E0FEA3E0FFF47002EEF46013D390015D8A
:0F0B8F00E09F90015CE09E4006E4F0A3F0B29678
:010B9E002234
:1008AD00E4F521F52290015FE02FF090015EE03438
:1008BD0000F0D3A3E0946490015EE094004058E40E
:1008CD00F0A3F0A3E02408F8E6FF7B007A0079217D
:1008DD007540017D10120A5CEF6003E4F521632180
:1008ED00FFE4F522900160E02402FFAE22E521A88D
:1008FD0006088002C313D8FC24FF9204AD22120413
:10090D00BF0522E522C3940440DA900160E004F0B3
:07091D00C394044002E4F062
:0109240022B0
:10028C00900162E02FF0900161E03400F0D3A3E024
:0D029C0094F4900161E0940150030203B856
:1002A900E4F521F522F526F525F524F523F0A3F04B
:0202B900F5212D
:1002BB00E4F52778287C00FD7BFF7A0D7980FE7FA3
:1002CB000E12022A74082521F8E6FF7B007A0079CA
:1002DB00287540107D30120A5C8F27E5277034F5A6
:1002EB0022E52225E025E0FD2429F8E6FE74282DE1
:1002FB00F8E6FDEDFFE4FCFDE5262FF526E5253EB2
:10030B00F525ED3524F524EC3523F5230522E522DF
:03031B00B404CE59
:10031E000521E521C394044094E4FF7E60FDFCAB0F
:10032E0026AA25A924A823D312027B401312002645
:10033E009001667410F0900164E4F0A37464F022EE
:10034E0074FF7F0BFEFDFCAB26AA25A924A823D3A0
:10035E0012027B4015E4FF120AAC9001667410F095
:10036E00900164E4F0A374FAF022E47F51FEFDFCE8
:10037E00AB26AA25A924A823D312027B4016E4FF9C
:10038E00120AAC9001667410F09001647402F0A32E
:10039E0074EEF022900166E0C39410400D1203B982
:0A03AE0074FF900164F0A3F0D296F2
:0103B8002222
:10002600E4900167F0A3F0A3F0F536F537F53890C4
:1000360001687403F0900168E0C364809480500303
:030046000201595B
:10004900E4F539753A03900168E02408F8E6FF7B86
:10005900007A0079367540017D10120A5C8F39E506
:10006900396007AF3A153AEF70DCE53960030201F0
:10007900509001697403F0900169E0FFC3648094B2
:10008900805003020150E536A807088002C313D83F
:10009900FC20E003020147900169E0FF74017E0042
:1000A900A807088005C333CE33CED8F9C4F8540F56
:1000B900C868FF8F38753A03900168E02408F8E6AC
:1000C900FF7B007A0079387540017D19120B3D8F4D
:1000D90039E5396007AF3A153AEF70DC753A0390A4
:1000E9000168E02408F8E6FF7B007A00793775405B
:1000F900017D14120A5C8F39E5396007AF3A153A68
:10010900EF70DC900169E0FF7411A807088002C351
:1001190033D8FCF45237753A03900168E02408F8A3
:10012900E6FF7B007A0079377540017D14120B3D9B
:100139008F39E539601AAF3A153AEF70DC22900130
:0701490069E014F0020080E0
:09015000900168E014F002003B8C
:010159002283
:1003B900E4900167F0A3F0A3F0F536F537900168F2
:0F03C900F0900168E0C36480948440030204BE96
:1003D800E4F538753903900168E02408F8E6FF7BF6
:1003E800007A0079367540017D14120A5C8F38E571
:1003F800386007AF391539EF70DCE538600302045F
:10040800B5900169F0900169E0FFC364809484406D
:10041800030204B5E536A807088002C313D8FC30E8
:10042800E0030204AC900169E0FF74017E00A807B4
:10043800088005C333CE33CED8F9C4F8540FC86842
:10044800FF8F37753903900168E02408F8E6FF7BD1
:10045800007A0079377540017D19120B3D8F38E518
:10046800386007AF391539EF70DC900169E0FF7427
:1004780011A807088002C333D8FC423675390390A7
:100488000168E02408F8E6FF7B007A0079367540B9
:10049800017D14120B3D8F38E538601AAF391539D4
:0D04A800EF70DC22900169E004F002040D09
:0904B500900168E004F00203CAA2
:0104BE00221B
:020AAC008F3683
:100AAE00E490016CF0A3F0A37403F0900163E06591
:100ABE0036603AE536F0E490016CF090016CE0247B
:100ACE0008F8E6FF7B007A0079367540017D141236
:100ADE000B3D90016DEFF06008A3E0FF14F0EF7096
:0D0AEE00DA90016CE004F0E0C3940440CE07
:010AFB0022D8
:1004BF007EFFEFC39406500DEDC394045007EF2554
:1004CF00E025E02DFEEEB4180040030205A39004D2
:1004DF00E4F828287302052C0205310205360205BF
:1004EF003B02054002054502054A02054F0205542D
:1004FF0002055902055E02056302056802056D02D9
:10050F00057202057702057C020581020586020548
:10051F008B02059002059502059A02059FA204928F
:10052F00A222A20492A322A20492A422A20492A520
:10053F0022A20492A622A20492A722A204928022AF
:10054F00A204928122A204928222A20492C322A226
:10055F0004928322A204928422A204928522A204EE
:10056F00928622A204928722A204929022A204923F
:10057F00CA22A20492CB22A204929122A2049292A6
:10058F0022A204929322A204929422A20492C42241
:04059F00A20492958B
:0105A3002235
:03065C0001130087
:100D5F00538EBFE4F589758B30758DF8D28ED2AB7B
:010D6F002261
:03001B00020DBF14
:030DBF00051332E7
:030DC200AF13224A
:100A0500706F655F6C65640A0053775F5665723A6F
:100A150056322E300A0048775F5665723A56322EA6
:100A2500300A004A756E20313320323031380A00E1
:100A350031333A35343A35300A00777269746520B6
:100A4500313D007265616420313D007665720A00B2
:070A5500236C6F61640A00CD
:10065F004200D40000010F644100D6004100D900D0
:0B066F004100D800010C00020D00004B
:100CF700AD07AC06538EEF538EF7438E048CD6AFF9
:0A0D0700058FD753AFFB438E102277
:100BF900438E017FCC7EFF120CF7E598543F4440A9
:100C0900F598D2BCD2ACD29C53A23F439710C202F2
:0A0C1900E49000D6F09000D9F0221C
:03002300020925AA
:0F092500C0E0C083C082C0D075D000C006C0073C
:08093400AFBA53BA7F309844BA
:10093C00C29885990C20033CE50C640D6036900040
:10094C00D8E0FE04F074002EF582E43400F583E563
:10095C000CF0640A60079000D8E0B413D0D2039076
:10096C0000D8E02400F582E43400F583E4F0900034
:02097C00D8F0B1
:0B097E0080B9309904C299C2028FBA00
:0D098900D007D006D0D0D082D083D0E0328D
:10067B0020030302074E7BFF7A0A7950120D268E58
:10068B00278F287524FF75250A7526507B017A0064
:10069B007900120996EF70339000D8F0C2037BFFFC
:1006AB007A0A7905120D3B7BFF7A0A790E120D3B04
:1006BB007BFF7A0A791B120D3B7BFF7A0A79281292
:1006CB000D3B7BFF7A0A7935020D3B7BFF7A0A796A
:1006DB003F120D268E278F287524FF75250A752648
:1006EB003F7B017A007900120996EF700280227B22
:1006FB00FF7A0A7948120D268E278F287524FF75ED
:10070B00250A7526487B017A007900120996EF704D
:10071B00079000D8F0C203227BFF7A0A7955120D9D
:10072B00268E278F287524FF75250A7526557B0184
:10073B007A007900120996EF70099000D8F0C20385
:04074B0075C76022EC
:100BCC009000D9E0FF9000D6E0FE6F601F20021C61
:100BDC0074142EF582E43400F583E0F599D202907A
:0D0BEC0000D6E004F0C394C04002E4F02203
:100CBE009000D9E02414F582E43400F583EFF0902F
:0D0CCE0000D9E004F0C394C04002E4F0221D
:100D3B00120250FF600C120CBE740129F9E43AFA4E
:030D4B0080EE2215
:100C23009000D8E07005F50DF50E22EF250EF50EB8
:100C3300E4350DF50DD3E50E950FE50D9400400950
:090C4300E4F50DF50E9000D8F067
:010C4C002285
:10082D00020AFCE493A3F8E493A34003F68001F2DB
:10083D0008DFF48029E493A3F85407240CC8C333CC
:10084D00C4540F4420C8834004F456800146F6DF9B
:10085D00E4800B01020408102040809005A4E47E82
:10086D00019360BCA3FF543F30E509541FFEE49390
:10087D00A360010ECF54C025E060A840B8E493A357
:10088D00FAE493A3F8E493A3C8C582C8CAC583CA82
:10089D00F0A3C8C582C8CAC583CADFE9DEE780BE3A
:01067A00007F
:10015A00E709F608DFFA8046E709F208DFFA803E87
:10016A0088828C83E709F0A3DFFA8032E309F60874
:10017A00DFFA8078E309F208DFFA807088828C83DC
:10018A00E309F0A3DFFA806489828A83E0A3F60890
:10019A00DFFA805889828A83E0A3F208DFFA804C6A
:1001AA0080D280FA80C680D4806980F28033801041
:1001BA0080A680EA809A80A880DA80E280CA8033AA
:1001CA0089828A83ECFAE493A3C8C582C8CCC58322
:1001DA00CCF0A3C8C582C8CCC583CCDFE9DEE780F2
:1001EA000D89828A83E493A3F608DFF9ECFAA9F071
:1001FA00EDFB2289828A83ECFAE0A3C8C582C8CCC7
:10020A00C583CCF0A3C8C582C8CCC583CCDFEADEDF
:10021A00E880DB89828A83E493A3F208DFF980CC41
:10022A0088F0EF60010E4E60C388F0ED2402B4043A
:10023A000050B9F582EB2402B4040050AF232345E1
:06024A0082239001AA735B
:10025000BB010689828A83E0225002E722BBFE02AC
:09026000E32289828A83E49322DF
:10026900BB010689828A83F0225002F722BBFE0174
:02027900F3226E
:10027B00EB9FF5F0EA9E42F0E99D42F0E89C45F0D9
:01028B002250
:100996008B218A228923AB24AA25A926120250FE7E
:1009A600AB21AA22A923120250FF6E702BEF600D15
:1009B600E52815287002152714452770037F0022A5
:1009C60074012523F523E43522F52274012526F545
:1009D60026E43525F52580BEAB21AA22A9231202DD
:1009E60050FDD3EE6480F8ED64809840037F0122C9
:0F09F600AB24AA25A926120250FFC3ED9FFF22B2
:100D2600E4FFFE120250600C0FEF70010E09E9702D
:050D3600F20A80EF222B
:00000001FF
