:03000000020651A4
:0C065100787FE4F6D8FD75814102069820
:060582000113000114004A
:100C3E00C3EF9513F51460158F13FF120BF1AF145C
:0D0C4E001208B3AF14120B6CAF1412022683
:010C5B002276
:100A39007594FFE4F59375923FF5917596FCF595DC
:100A4900F5B275B1C075B418F5B375CA0CF5C9120C
:100A59000D4A120C79120BC712001E120921D2AFCE
:100A69001204AE120B9A120D9F120C3E120D9880B1
:010A7900EF8D
:10058800608000DA000000000000000000000000A9
:100598000000000000000000000000000000000053
:1005A8000000000000000000000000000000000043
:1005B8000000000000000000000000000000000033
:1005C8000000000000000000000000000000000023
:1005D8000000000000000000000000000000000013
:1005E8000000000000000000000000000000000003
:1005F80000000000000000000000000000000000F3
:0706080000000000011700D3
:0A0C1B0090FE82F0740590FE81F057
:100C25007FFF90FE82E020E602DFF790FE82E0542F
:080C3500BFF0EF70034317014B
:010C3D002294
:0C0D6B0043BA807401120C2153BA7F229D
:100D0D0043BA8090FE86EFF090FE817402F0120CD3
:050D1D002553BA7F22FE
:060CF70025E0FF120D0DC7
:100CFD0043BA8090FE817403F0120C2553BA7F2203
:100CC900E4FF43BA8090FE817404F0120C2590FE73
:060CD90087E0FF53BA7F23
:010CDF0022F2
:0B0D830043BA80E4120C1B53BA7F221D
:0C0D770043BA807401120C1B53BA7F2297
:100D5B0043BA8090FE817406F0120C2553BA7F22A1
:100C790043BA8090FE13E0440CF043BA3090FE80F2
:0C0C890074E0F090FE82E4F053BA7F2289
:100A7A008B3C8A3D893EAE05AD07E4F517120D6B36
:100A8A00ED120CF7AF06120D0D120CFDE53FD394D3
:100A9A00004018AB3C053EE53EAA3D7002053D14F8
:100AAA00F912011C120CF9153F80E1120D5BAF1708
:010ABA002219
:100985008B3E8A3F8940AE07E4F517120D6BEE12D8
:100995000CF7AF05120D0D120CFD120D6BEE25E0D7
:1009A50004120CF9E541D39401401C120CC9AB3E6D
:1009B5000540E540AA3F7002053F14F9EF120135E5
:1009C500120D83154180DD120CC9AB3EAA3FA9402B
:0D09D500EF120135120D77120D5BAF1722E6
:100CE000706F655F6C65640A000000000000000022
:070CF00000000000000000FD
:10060F004201600000040B272B2D2E42015A0000DF
:10061F0042015C000001080042015E000001090078
:03062F00010A00BD
:0A0D8E00EFD3940040031F80F7220A
:100C9500AD07AC06D3ED9400EC9400400C7FFF1239
:0A0CA5000D8EED1D70EE1C80EB2299
:04001E0075C1262260
:040D980043C1102221
:10092100E4900162F0C204120003C2967FFF7E2FA1
:10093100120C95D204120003D29674FF900160F05C
:10094100A3F07DAA7F12120AF87DFF7F14120AF824
:100951007D0F7F19120AF8E4900162F0900162E0C4
:10096100FFC394045015EF75F005A42446FF7D01E3
:10097100120AF8900162E004F080E17BFF7A0C79C1
:04098100E0020D374C
:100B6C00900160E0FCA3E0FDF47002ECF4601E90D8
:100B7C00015BE02FF090015AE03400F0D3A3E09D2C
:0D0B8C0090015AE09C4006E4F0A3F0B29600
:010B99002239
:1008B300E4F521F522FEEFFD90015DE02DF09001BE
:1008C3005CE03400F0D3A3E0946490015CE0940016
:1008D300404BE4F0A3F0FB7A0079217D10AF0812BE
:1008E3000ABBEF6003E4F521E4F522AF22E521A87A
:1008F30007088002C313D8FC30E004C2058002D28B
:1009030005AD22AF081203C60522E522C3940440B5
:0D091300DA0508E508C394044003E4F50884
:0109200022B4
:10022600E4900162F090015FE02FF090015EE0340F
:1002360000F0D3A3E094F490015EE0940150030231
:0202460003C5EE
:10024800E4F521F522F526F525F524F523F0A3F0AC
:02025800F5218E
:10025A0078277C007D007BFF7A0C79E97E007F0E8F
:10026A001200F6740B2521F8E6FF7B007A00792745
:10027A007541107D30120985900162EFF07039F5F1
:10028A0022E52225E025E0FD2428F8E6FE74272D44
:10029A00F8E6FDEDFFE4FCFDE5262FF526E5253E13
:1002AA00F525ED3524F524EC3523F5230522E52241
:1002BA00B404CEE4F50A800CAF0A050AEFD3940A17
:0402CA00400280FE70
:0902CE000521E521C394044083DD
:1002D70085262A8525298524288523277F69120CC9
:1002E7005C7F3D120C5CAF2AAE29AD28AC27EC4DE4
:1002F7004E4F602BE47B0AFAF9F8120183EB2430A6
:10030700FF120C5CAF2AAE29AD28AC27E47B0AFAB2
:10031700F9F81201838F2A8E298D288C2780C77FB1
:040327000A120C5C4E
:10032B007F407E0D7D037C00AB26AA25A924A82344
:10033B00D312021540030203C5E47F407E1FFDFC70
:10034B00A82312021540160509E5099402406B908B
:10035B000160E4F0A37428F01206DD805AE47FC03C
:10036B007E12FDFCAB26AA25A924A823D3120215C5
:10037B00400B900160E4F0A37496F0803AE47F6048
:10038B007E09FDFCAB26AA25A924A823D3120215AE
:10039B00400E9001607401F0A374F4F07DFF800BAC
:1003AB0074FF900160F0A3F0D296FD7F14120AF84F
:0A03BB007D0F7F19120AF8E4F5091E
:0103C5002215
:1006DD00E4900163F0A3F0A3F0F535F536900164D5
:1006ED007403F0900164E0FFC364809480405E7BEE
:1006FD00007A0079357D10120ABB900163EFF0701E
:10070D0044900165F0900165E0FFC36480948450CE
:10071D0034E535A807088002C313D8FC30E01E90DD
:10072D000165E0FF7410A807088002C333D8FC42AE
:10073D0036900164E0FFAB367D19020B33900165F5
:0D074D00E004F080C0900164E014F080969C
:01075A00227C
:10075B00E4900168F0A3F0A3F0F515F5169001698C
:10076B00F0900169E0FFC39404505C7B007A007940
:10077B00157D10120ABB900168EFF0704290016A70
:10078B00F090016AE0FFC394045034E515A8070804
:10079B008002C313D8FC20E01E90016AE0FF7401B5
:1007AB00A807088002C333D8FC4216900169E0FF0A
:1007BB00AB167D19020B3390016AE004F080C290F6
:0707CB000169E004F0809ACF
:0107D2002204
:1003C6007EFFEFC39406500DEDC394045007EF254E
:1003D600E025E02DFE74082EFEB41800400302044A
:1003E600AD9003EEF828287302043602043B02049B
:1003F6004002044502044A02044F0204540204590E
:1004060002045E02046302046802046D02047202BE
:10041600047702047C02048102048602048B02042F
:100426009002049502049A02049F0204A40204A9FD
:10043600A20592A522A20592A422A20592A322A217
:100446000592A222A205928122A205928022A205ED
:1004560092A722A20592A622A205928422A2059222
:100466008322A20592C322A205928222A20592901D
:1004760022A205928722A205928622A205928522B1
:10048600A205929222A205929122A20592CB22A2C5
:100496000592CA22A205929522A20592C422A2051D
:0704A600929422A20592933B
:0104AD00222C
:10000300E4FCE4FBAF04AD03A20492051203C60BA8
:07001300BB04F10CBC04EB7F
:01001A0022C3
:03063200011800AC
:100D4A00538EBFE4F589758B30758DF8D28ED2AB90
:010D5A002276
:03001B00020D9C37
:030D9C0005183205
:030D9F00AF182268
:040AF8008F358D3673
:100AFC00E4900163F0A3F0F0900164E0FFC3940470
:100B0C00501F900163E025E0F0E0FEC006AB36AD6F
:100B1C0035120B33D0E04F900163F0A3E004F0806A
:060B2C00D7900163E0FF19
:010B320022A0
:040B33008F378D3833
:100B3700E4900166F0A37403F08B39740B2537F842
:100B4700E6FF7B007A007939753F01AD38120A7AE2
:100B5700900166EFF06008A3E0FF14F0EF70DC90FF
:040B67000166E0FF44
:010B6B002267
:0A0ABB008F378D388B398A3A893B5A
:100AC500E4900166F0A37403F0740B2537F8E6FF94
:100AD500AB39AA3AA93B754101AD38120985900198
:100AE50066EFF06008A3E0FF14F0EF70DC9001669C
:020AF500E0FF20
:010AF70022DC
:1009E200706F655F6C65640A0053775F5665723A93
:1009F20056322E310A0048775F5665723A56322EC9
:100A0200300A004A756C20323220323031380A0006
:100A120031353A34373A33330A00777269746520D4
:100A2200313D007265616420313D007665720A00D5
:070A3200236C6F61640A00F0
:100635004200D400000112644100D6004100D900F7
:0B0645004100D800010F00021000006F
:100CAF00AD07AC06538EEF538EF7438E048CD6AF41
:0A0CBF00058FD753AFFB438E1022C0
:100BC700438E017FCC7EFF120CAFE598543F444023
:100BD700F598D2BCD2ACD29C53A23F439710C20225
:0A0BE700E49000D6F09000D9F0224F
:030023000207D3FE
:0F07D300C0E0C083C082C0D075D000C006C00790
:0807E200AFBA53BA7F3098440E
:1007EA00C29885990F20033CE50F640D603690008E
:1007FA00D8E0FE04F074002EF582E43400F583E5B7
:10080A000FF0640A60079000D8E0B413D0D20390C6
:10081A0000D8E02400F582E43400F583E4F0900087
:02082A00D8F004
:0B082C0080B9309904C299C2028FBA53
:0D083700D007D006D0D0D082D083D0E032E0
:1004AE002003030205817BFF7A0A792D120D228E1D
:1004BE00278F287524FF75250A75262D7B017A0056
:1004CE007900120844EF70339000D8F0C2037BFF1E
:1004DE007A0979E2120D377BFF7A0979EB120D3723
:1004EE007BFF7A0979F8120D377BFF7A0A790512AC
:1004FE000D377BFF7A0A7912020D377BFF7A0A7964
:10050E001C120D228E278F287524FF75250A75263D
:10051E001C7B017A007900120844EF700280227B66
:10052E00FF7A0A7925120D228E278F287524FF75E2
:10053E00250A7526257B017A007900120844EF7092
:10054E00079000D8F0C203227BFF7A0A7932120D8F
:10055E00228E278F287524FF75250A7526327B017A
:10056E007A007900120844EF70099000D8F0C203A7
:04057E0075C76022BB
:100B9A009000D9E0FF9000D6E0FE6F601F20021C93
:100BAA0074142EF582E43400F583E0F599D20290AC
:0D0BBA0000D6E004F0C394C04002E4F02235
:100C5C009000D9E02414F582E43400F583EFF09091
:0D0C6C0000D9E004F0C394C04002E4F0227F
:100D370012011CFF600C120C5C740129F9E43AFAE9
:030D470080EE2219
:100BF1009000D8E07005F510F51122EF2511F511DF
:100C0100E43510F510D3E5119512E5109400400973
:090C1100E4F510F5119000D8F093
:010C1A0022B7
:10065D00020A39E493A3F8E493A34003F68001F270
:10066D0008DFF48029E493A3F85407240CC8C3339E
:10067D00C4540F4420C8834004F456800146F6DF6D
:10068D00E4800B0102040810204080900582E47E76
:10069D00019360BCA3FF543F30E509541FFEE49362
:1006AD00A360010ECF54C025E060A840B8E493A329
:1006BD00FAE493A3F8E493A3C8C582C8CAC583CA54
:1006CD00F0A3C8C582C8CAC583CADFE9DEE780BE0C
:0106500000A9
:10002600E709F608DFFA8046E709F208DFFA803EBC
:1000360088828C83E709F0A3DFFA8032E309F608A9
:10004600DFFA8078E309F208DFFA807088828C8311
:10005600E309F0A3DFFA806489828A83E0A3F608C5
:10006600DFFA805889828A83E0A3F208DFFA804C9F
:1000760080D280FA80C680D4806980F28033801076
:1000860080A680EA809A80A880DA80E280CA8033DF
:1000960089828A83ECFAE493A3C8C582C8CCC58357
:1000A600CCF0A3C8C582C8CCC583CCDFE9DEE78027
:1000B6000D89828A83E493A3F608DFF9ECFAA9F0A6
:1000C600EDFB2289828A83ECFAE0A3C8C582C8CCFC
:1000D600C583CCF0A3C8C582C8CCC583CCDFEADE15
:1000E600E880DB89828A83E493A3F208DFF980CC77
:1000F60088F0EF60010E4E60C388F0ED2402B40470
:100106000050B9F582EB2402B4040050AF23234516
:06011600822390007673C5
:10011C00BB010689828A83E0225002E722BBFE02E1
:09012C00E32289828A83E4932214
:10013500BB010689828A83F0225002F722BBFE01A9
:02014500F322A3
:1001470075F008758200EF2FFFEE33FECD33CDCC6F
:1001570033CCC58233C5829BED9AEC99E5829840F2
:100167000CF582EE9BFEED9AFDEC99FC0FD5F0D6CF
:10017700E4CEFBE4CDFAE4CCF9A88222B800C1B9F9
:100187000059BA002DEC8BF084CFCECDFCE5F0CB37
:10019700F97818EF2FFFEE33FEED33FDEC33FCEB70
:1001A70033FB10D703994004EB99FB0FD8E5E4F92B
:1001B700FA227818EF2FFFEE33FEED33FDEC33FC18
:1001C700C933C910D7059BE99A4007EC9BFCE99A0C
:1001D700F90FD8E0E4C9FAE4CCFB2275F010EF2F51
:1001E700FFEE33FEED33FDCC33CCC833C810D70751
:1001F7009BEC9AE899400AED9BFDEC9AFCE899F88C
:0E0207000FD5F0DAE4CDFBE4CCFAE4C8F9221E
:10021500EB9FF5F0EA9E42F0E99D42F0E89C45F03F
:0102250022B6
:100844008B218A228923AB24AA25A92612011CFE06
:10085400AB21AA22A92312011CFF6E702BEF600D9D
:10086400E52815287002152714452770037F0022F8
:1008740074012523F523E43522F52274012526F598
:1008840026E43525F52580BEAB21AA22A923120131
:100894001CFDD3EE6480F8ED64809840037F012250
:0F08A400AB24AA25A92612011CFFC3ED9FFF223A
:100D2200E4FFFE12011C600C0FEF70010E09E97066
:050D3200F20A80EF222F
:00000001FF
