:03000000020523D3
:0C052300787FE4F6D8FD75813F02056A80
:06045A0001110001120077
:100B2400C3EF9511F51260158F11FF120AD7AF129A
:0D0B34001205AFAF12120A52AF12120026C6
:010B41002291
:100920007594FFE4F59375923FF5917596FCF595F6
:10093000F5B275B1C075B418F5B375CA0CF5C91226
:100940000C30120B5F120AAD12001E120808D2AF53
:10095000120386120A80120C85120B24120C7E8060
:01096000EFA7
:10046000608000DA000000000000000000000000D2
:10047000000000000000000000000000000000007C
:10048000000000000000000000000000000000006C
:10049000000000000000000000000000000000005C
:1004A000000000000000000000000000000000004C
:1004B000000000000000000000000000000000003C
:1004C000000000000000000000000000000000002C
:1004D000000000000000000000000000000000001C
:0704E0000000000001130001
:0A0B010090FE82F0740590FE81F072
:100B0B007FFF90FE82E020E602DFF790FE82E0544A
:080B1B00BFF0EF70034313016A
:010B230022AF
:0C0C510043BA807401120B0753BA7F22D3
:100BF30043BA8090FE86EFF090FE817402F0120BF0
:050C03000B53BA7F2233
:060BDD0025E0FF120BF3FE
:100BE30043BA8090FE817403F0120B0B53BA7F2239
:100BAF00E4FF43BA8090FE817404F0120B0B90FEA9
:060BBF0087E0FF53BA7F3E
:010BC500220D
:0B0C690043BA80E4120B0153BA7F2253
:0C0C5D0043BA807401120B0153BA7F22CD
:100C410043BA8090FE817406F0120B0B53BA7F22D7
:100B5F0043BA8090FE13E0440CF043BA3090FE800D
:0C0B6F0074E0F090FE82E4F053BA7F22A4
:100961008B3C8A3D893EAE05AD07E4F513120C516F
:10097100ED120BDDAF06120BF3120BE3E53FD3943F
:10098100004018AB3C053EE53EAA3D7002053D1412
:10099100F9120262120BDF153F80E1120C41AF1315
:0109A1002233
:10086C008B3C8A3D893EAE07E4F513120C51EE1217
:10087C000BDDAF05120BF3120BE3120C51EE25E05E
:10088C0004120BDFE53FD39401401C120BAFAB3CC1
:10089C00053EE53EAA3D7002053D14F9EF12027BC0
:1008AC00120C69153F80DD120BAFAB3CAA3DA93E83
:0D08BC00EF12027B120C5D120C41AF1322F3
:100BC600706F655F6C65640A00000000000000003D
:070BD6000000000000000018
:1004E70042016000000409272B2D2E42015A00000B
:0D04F70042015C000001080042015E0000AF
:0A0C7400EFD3940040031F80F72225
:100B7B00AD07AC06D3ED9400EC9400400C7FFF1254
:0A0B8B000C74ED1D70EE1C80EB22CF
:04001E0075C1262260
:040C7E0043C110223C
:10080800E4900162F0C204120003C2967FFF7E4F9B
:10081800120B7BD204120003D29674FF900160F091
:10082800A3F07DAA7F121209DE7DFF7F141209DE74
:100838007D0F7F191209DEE4900162F0900162E0F9
:10084800FFC394045015EF75F005A42446FF7D01FD
:100858001209DE900162E004F080E17BFF7A0B79F7
:04086800C6020C1D9B
:100A5200900160E0FCA3E0FDF47002ECF4601E90F3
:100A6200015BE02FF090015AE03400F0D3A3E09D47
:0D0A720090015AE09C4006E4F0A3F0B2961B
:010A7F002254
:1005AF00E4F521F522FEEFFD90015DE02DF09001C5
:1005BF005CE03400F0D3A3E0946490015CE094001D
:1005CF004062E4F0A3F07F67120B427B007A007960
:1005DF00217D10AF081209A2EF600A7F2D120B4286
:1005EF00E4F52180057F7C120B42E4F522AF22E572
:1005FF0021A807088002C313D8FC30E004C205808D
:10060F0002D205AD22AF0812029E0522E522C39445
:10061F000440DA0508E508C394044003E4F5087FB5
:04062F000A120B425E
:0106330022A4
:10002600E4900162F090015FE02FF090015EE03411
:1000360000F0D3A3E094F490015EE0940150030233
:02004600016B4C
:10004800E4F521F522F526F525F524F523F0A3F0AE
:080058007F69120B42E4F5215F
:1000600078277C007D007BFF7A0B79CF7E007F0EA6
:1000700012023C74092521F8E6FF7B007A007927FB
:10008000753F107D3012086C900162EFF0703C7F7C
:100090007C120B42E4F522E52225E025E0FD242830
:1000A000F8E6FE74272DF8E6FDEDFFE4FCFDE526FD
:1000B0002FF526E5253EF525ED3524F524EC3523F1
:1000C000F5230522E522B404CE80057F2D120B42D4
:1000D0000521E521C394044087E47F407E1FFDFC99
:1000E000AB26AA25A924A823D312028D4010900183
:1000F00060E4F0A37428F01206347F4D80657FD64B
:100100007EFE7DFF7CFFAB26AA25A924A823D3125F
:10011000028D400D900160E4F0A37496F07F6D8035
:100120004274FF7F23FEFDFCAB26AA25A924A82349
:10013000D312028D40189001607401F0A374F4F0A2
:100140007DFF7F141209DE1206B07F53801574FF05
:10015000900160F0A3F0D296FD7F141209DE120622
:0B016000B07F73120B427F0A120B42AB
:01016B002271
:10063400E4900163F0A3F0A3F0F535F5369001647E
:100644007403F0900164E0FFC39400405E7B007A81
:100654000079357D101209A2900163EFF070449087
:1006640001657403F0900165E0FFC394004034E534
:1006740035A807088002C313D8FC30E01E9001653A
:10068400E0FF7410A807088002C333D8FC423690F8
:100694000164E0FFAB367D19020A19900165E0148C
:0B06A400F080C2900164E014F0809828
:0106AF002228
:1006B000E4900163F0A3F0A3F0F535F53690016402
:1006C000F0900164E0FFC39404505C7B007A0079F1
:1006D000357D101209A2900163EFF0704290016520
:1006E000F0900165E0FFC394045034E535A8070895
:1006F0008002C313D8FC20E01E900165E0FF740166
:10070000A807088002C333D8FC4236900164E0FF9A
:10071000AB367D19020A19900165E004F080C290A1
:070720000164E004F0809A7F
:0107270022AF
:10029E007EFFEFC39406500DEDC394045007EF2577
:1002AE00E025E02DFE74082EFEB418004003020374
:1002BE00859002C6F828287302030E020313020368
:1002CE001802031D02032202032702032C0203312C
:1002DE0002033602033B02034002034502034A02B5
:1002EE00034F02035402035902035E020363020327
:1002FE006802036D02037202037702037C0203811C
:10030E00A20592A222A20592A322A20592A422A243
:10031E000592A522A20592A622A20592A722A205C7
:10032E00928022A205928122A205928222A2059299
:10033E00C322A205928322A205928422A20592854F
:10034E0022A205928622A205928722A205929022CF
:10035E00A20592CA22A20592CB22A205929122A2B6
:10036E0005929222A205929322A205929422A205B0
:07037E0092C422A205929532
:010385002255
:10000300E4FCE4FBAF04AD03A204920512029E0BD1
:07001300BB04F10CBC04EB7F
:01001A0022C3
:03050400011400DF
:100C3000538EBFE4F589758B30758DF8D28ED2ABAB
:010C40002291
:03001B00020C8252
:030C820005143224
:030C8500AF142287
:0409DE008F358D368E
:1009E200E4900163F0A3F0F0900164E0FFC394048B
:1009F200501F900163E025E0F0E0FEC006AB36AD8B
:100A020035120A19D0E04F900163F0A3E004F080A0
:060A1200D7900163E0FF34
:010A180022BB
:040A19008F378D384E
:100A1D00E4900166F0A37403F08B3974092537F85F
:100A2D00E6FF7B007A007939753F01AD3812096117
:100A3D00900166EFF06008A3E0FF14F0EF70DC901A
:040A4D000166E0FF5F
:010A51002282
:0409A2008F378D38C6
:1009A600E4900166F0A37403F0120262F53974094B
:1009B6002537F8E6FF7B007A007939753F01AD38B7
:1009C60012086C900166EFF06008A3E0FF14F0EFE8
:0709D60070DC900166E0FFF8
:0109DD0022F7
:1008C900706F655F6C65640A0053775F5665723AAD
:1008D90056322E300A0048775F5665723A56322EE4
:1008E900300A004A756E20323120323031380A0020
:1008F90031313A33313A34330A00777269746520F9
:10090900313D007265616420313D007665720A00EF
:07091900236C6F61640A000A
:100507004200D400000110644100D6004100D90028
:0B0517004100D800010D00020E0000A2
:100B9500AD07AC06538EEF538EF7438E048CD6AF5C
:0A0BA500058FD753AFFB438E1022DB
:100AAD00438E017FCC7EFF120B95E598543F444059
:100ABD00F598D2BCD2ACD29C53A23F439710C20240
:0A0ACD00E49000D6F09000D9F0226A
:03002300020728A9
:0F072800C0E0C083C082C0D075D000C006C0073B
:08073700AFBA53BA7F309844B9
:10073F00C29885990D20033CE50D640D603690003D
:10074F00D8E0FE04F074002EF582E43400F583E562
:10075F000DF0640A60079000D8E0B413D0D2039074
:10076F0000D8E02400F582E43400F583E4F0900033
:02077F00D8F0B0
:0B07810080B9309904C299C2028FBAFF
:0D078C00D007D006D0D0D082D083D0E0328C
:100386002003030204597BFF7A097914120C088EA4
:10039600278F287524FF7525097526147B017A0099
:1003A6007900120799EF70339000D8F0C2037BFFF3
:1003B6007A0879C9120C1D7BFF7A0879D2120C1DB6
:1003C6007BFF7A0879DF120C1D7BFF7A0879EC1225
:1003D6000C1D7BFF7A0879F9020C1D7BFF7A0979DF
:1003E60003120C088E278F287524FF75250975269C
:1003F600037B017A007900120799EF700280227B55
:10040600FF7A09790C120C088E278F287524FF7540
:10041600250975260C7B017A007900120799EF7081
:10042600079000D8F0C203227BFF7A097919120CD3
:10043600088E278F287524FF7525097526197B01D7
:100446007A007900120799EF70099000D8F0C2037C
:0404560075C76022E4
:100A80009000D9E0FF9000D6E0FE6F601F20021CAE
:100A900074142EF582E43400F583E0F599D20290C7
:0D0AA00000D6E004F0C394C04002E4F02250
:100B42009000D9E02414F582E43400F583EFF090AC
:0D0B520000D9E004F0C394C04002E4F0229A
:100C1D00120262FF600C120B42740129F9E43AFAD8
:030C2D0080EE2234
:100AD7009000D8E07005F50EF50F22EF250FF50F02
:100AE700E4350EF50ED3E50F9510E50E9400400999
:090AF700E4F50EF50F9000D8F0B3
:010B000022D2
:10052F00020920E493A3F8E493A34003F68001F2B9
:10053F0008DFF48029E493A3F85407240CC8C333CD
:10054F00C4540F4420C8834004F456800146F6DF9C
:10055F00E4800B010204081020408090045AE47ECE
:10056F00019360BCA3FF543F30E509541FFEE49391
:10057F00A360010ECF54C025E060A840B8E493A358
:10058F00FAE493A3F8E493A3C8C582C8CAC583CA83
:10059F00F0A3C8C582C8CAC583CADFE9DEE780BE3B
:0105220000D8
:10016C00E709F608DFFA8046E709F208DFFA803E75
:10017C0088828C83E709F0A3DFFA8032E309F60862
:10018C00DFFA8078E309F208DFFA807088828C83CA
:10019C00E309F0A3DFFA806489828A83E0A3F6087E
:1001AC00DFFA805889828A83E0A3F208DFFA804C58
:1001BC0080D280FA80C680D4806980F2803380102F
:1001CC0080A680EA809A80A880DA80E280CA803398
:1001DC0089828A83ECFAE493A3C8C582C8CCC58310
:1001EC00CCF0A3C8C582C8CCC583CCDFE9DEE780E0
:1001FC000D89828A83E493A3F608DFF9ECFAA9F05F
:10020C00EDFB2289828A83ECFAE0A3C8C582C8CCB4
:10021C00C583CCF0A3C8C582C8CCC583CCDFEADECD
:10022C00E880DB89828A83E493A3F208DFF980CC2F
:10023C0088F0EF60010E4E60C388F0ED2402B40428
:10024C000050B9F582EB2402B4040050AF232345CF
:06025C0082239001BC7337
:10026200BB010689828A83E0225002E722BBFE029A
:09027200E32289828A83E49322CD
:10027B00BB010689828A83F0225002F722BBFE0162
:02028B00F3225C
:10028D00EB9FF5F0EA9E42F0E99D42F0E89C45F0C7
:01029D00223E
:100799008B218A228923AB24AA25A926120262FE6B
:1007A900AB21AA22A923120262FF6E702BEF600D02
:1007B900E52815287002152714452770037F0022A4
:1007C90074012523F523E43522F52274012526F544
:1007D90026E43525F52580BEAB21AA22A9231202DC
:1007E90062FDD3EE6480F8ED64809840037F0122B6
:0F07F900AB24AA25A926120262FFC3ED9FFF229F
:100C0800E4FFFE120262600C0FEF70010E09E9703A
:050C1800F20A80EF224A
:00000001FF
