:030000000207CA2A
:0C07CA00787FE4F6D8FD7581420208112A
:06066700011D00011E0050
:0A0E1200EFD3940040031F80F72285
:100DAF00AE07EED3940040087FFF120E121E80F2A2
:010DBF002211
:100D5900C3EF951DF51E60108F1DFF120C95AF1E78
:080D6900120856AF1E120BE147
:010D7100225F
:100B6A007594FFE4F59375923FF5917596FCF595AA
:100B7A00F5B275B1C075B418F5B375CA0CF5C912DA
:100B8A000DC012001E120D23120C6BD2AF12059368
:0E0B9A00120C3E120E23120D59120E1C80EF8B
:10066D00608000DA000000000000000000000000C3
:10067D00000000000000000000000000000000006D
:10068D00000000000000000000000000000000005D
:10069D00000000000000000000000000000000004D
:1006AD00000000000000000000000000000000003D
:1006BD00000000000000000000000000000000002D
:1006CD00000000000000000000000000000000001D
:1006DD00000000000000000000000000000000000D
:0706ED0000000000011F00E6
:0A0CBF0090FE82F0740590FE81F0B3
:100CC9007FFF90FE82E020E606AE071FEE70F390EC
:0C0CD900FE82E054BFF0EF6003431F01F7
:010CE50022EC
:0C0DEF0043BA807401120CC553BA7F2275
:100D720043BA8090FE86EFF090FE817402F0120C6E
:050D8200C953BA7F22F5
:100CE600120DEF7F5A120D72120CF6E4FF120D72FE
:100CF60043BA8090FE817403F0120CC953BA7F2266
:10000300E4FF43BA8090FE817404F0120CC990FEA1
:0600130087E0FF53BA7FF5
:0100190022C4
:0B0E070043BA80E4120CBF53BA7F22F4
:0C0DFB0043BA807401120CBF53BA7F226F
:100DD10043BA8090FE817406F0120CC953BA7F2287
:100D230043BA8090FE13E0440CF043BA3090FE8047
:0C0D330074E0F090FE82E4F053BA7F22DE
:100B29008B2B8A2C892DAC07E4F51F120DEFEC25D0
:100B3900E0120CF2AF05120D72120CF6E52ED394E9
:100B4900004018AB2B052DE52DAA2C7002052C149D
:100B5900F912011C120CF2152E80E1120DD1AF1FF2
:010B69002269
:100A85008B258A268927AC07E4F51F120DEFEC2587
:100A9500E004120CF2AF05120D72120CF6E528D324
:100AA5009401401C120003AB250527E527AA2670F3
:100AB50002052614F9EF120135120E07152880DDFF
:100AC500120003AB25AA26A927EF120135120DFB4B
:060AD500120DD1AF1F223B
:100BA800120CE67F12120D72120CF67F78120D727B
:100BB800120CF6120DD1120CE6120DEF7F5B120D1E
:100BC80072120CF61200038F80120E071200038FA8
:090BD800A0120DFB120DD180FEEC
:0E0DE100000000000000000000000000000004
:1006F40042016400004101660042015A00004201C7
:100704005C000042015E00004101600042016100A2
:0507140000410163003B
:04001E0075C1262260
:040E1C0043C110229C
:10073800E4900167F0A3F0A3F0A3F0A37403F0E43E
:10074800900167F0E4900168F0900168E0FDC394BF
:10075800045012900167E0FFD2041204AE900168C1
:10076800E004F080E4900167E004F0E0C394044002
:10077800D3D29674FF900164F0A3F0E4FF120ADB71
:1007880090016974AAF0E4900167F090016B74031A
:10079800F0900167E02440FF7B017A017969752EAA
:1007A800017D12120B2990016AEFF06008A3E0FFA7
:1007B80014F0EF70DC900167E004F0E0C3940440AB
:0107C800CA66
:0107C900220D
:100C1100900166E0C39410502390015BE02FF090A7
:100C2100015AE03400F0D3A3E094C890015AE09453
:0C0C31000040091203B1900166E004F0DD
:010C3D002294
:100BE10090015DE02FF090015CE03400F090016431
:100BF100E0FEA3E0FFF47002EEF46013D390015D18
:0F0C0100E09F90015CE09E4006E4F0A3F0B29605
:010C100022C1
:10085600E4F521F52290015FE02FF090015EE0348F
:1008660000F0D3A3E0946490015EE09400406AE453
:10087600F0A3F0A3E02440FF7B007A0079217528DD
:10088600017D10120A85EF6005E4F52180149001C0
:1008960060E02430FF120D067F73120D067F0A12E8
:1008A6000D066321FFE4F522900160E0FFAE22E52C
:1008B60021A806088002C313D8FC24FF9204AD22A7
:1008C6001204AE0522E522C3940440DC900160E0E8
:0908D60004F0C394044002E4F0B4
:0108DF0022F6
:10015800900162E02FF0900161E03400F0D3A3E059
:0D01680094F4900161E094015003020284C0
:10017500E4F508F509F50DF50CF50BF50AF0A3F016
:02018500F5087B
:10018700E4F50E780F7C00FD7BFF7A0D79E1FE7FA9
:100197000E1200F6E5082440FF7B007A00790F7500
:1001A70028107D30120A858F0EE50E7034F509E5AB
:1001B7000925E025E0FD2410F8E6FE740F2DF8E68A
:1001C700FDEDFFE4FCFDE50D2FF50DE50C3EF50C0F
:1001D700ED350BF50BEC350AF50A0509E509B4040D
:0101E700CE49
:1001E8000508E508C394044096E47FC07E5DFDFCE5
:1001F800AB0DAA0CA90BA80AD3120147401312028F
:10020800859001667410F0900164E4F0A37464F0C2
:100218002274FF7F77FEFDFCAB0DAA0CA90BA80A80
:10022800D31201474015E4FF120ADB9001667410EF
:10023800F0900164E4F0A374FAF022E47F317E01C7
:10024800FDFCAB0DAA0CA90BA80AD3120147401656
:10025800E4FF120ADB9001667410F09001647402E6
:10026800F0A374EEF022900166E0C39410400D12E2
:0C02780003B174FF900164F0A3F0D29673
:010284002257
:10028500E490016CF0A3F0A3F0F52FF530F5319073
:10029500016D7403F090016DE0C364809480500398
:0302A5000203B0A1
:1002A800E4F53275330390016DE02440FF7B007A5A
:1002B80000792F7528017D10120A858F32E532608A
:1002C80007AF331533EF70DEE53260030203A79002
:1002D800016E7403F090016EE0FFC3648094805057
:1002E800030203A7E52FA807088002C313D8FC2040
:1002F800E00302039E90016EE0FF74017E00A807F0
:10030800088005C333CE33CED8F9C4F8540FC86873
:10031800FF8F3175330390016DE02440FF7B007A35
:10032800007931752E017D19120B298F32E5326063
:1003380007AF331533EF70DE75330390016DE0249A
:1003480040FF7B007A0079307528017D14120A85F8
:100358008F32E5326007AF331533EF70DE90016EF0
:10036800E0FF7411A807088002C333D8FCF45230A8
:1003780075330390016DE02440FF7B007A007930EB
:10038800752E017D14120B298F32E532601AAF33B6
:0F0398001533EF70DE2290016EE014F00202DDEB
:0903A70090016DE014F002029ACD
:0103B000222A
:1003B100E490016FF0A3F0A3F0F539F53A900170E4
:0F03C100F0900170E0C36480948440030204ADA7
:1003D000E4F53B753C03900170E02440FF7B007A1C
:1003E0000079397528017D14120A858F3BE53B6041
:1003F00007AF3C153CEF70DEE53B60030204A490C0
:100400000171F0900171E0FFC364809484400302A5
:1004100004A4E539A807088002C313D8FC20E07BB8
:10042000900171E0FF74017E00A807088005C333C6
:10043000CE33CED8F9C4F8540FC868FF8F3A753C54
:1004400003900170E02440FF7B007A00793A752E1A
:10045000017D19120B298F3BE53B6007AF3C153C32
:10046000EF70DE900171E0FF7411A807088002C3ED
:1004700033D8FC4239753C03900170E02440FF7B87
:10048000007A007939752E017D14120B298F3BE516
:100490003B601AAF3C153CEF70DE22900171E00426
:0404A000F00204035F
:0904A400900170E004F00203C2B3
:0104AD00222C
:020ADB008F4149
:100ADD00E4900172F0A3F0A37403F0900163E0655C
:100AED00416038E541F0E4900172F0900172E0242C
:100AFD0040FF7B007A007941752E017D14120B2980
:100B0D00900173EFF06008A3E0FF14F0EF70DC903C
:0B0B1D000172E004F0E0C3940440D03B
:010B280022AA
:1004AE007EFFEFC39404500DEDC394045007EF2567
:1004BE00E025E02DFEEEB4180040030205929004F4
:1004CE00D3F828287302051B020520020525020514
:1004DE002A02052F02053402053902053E020543A4
:1004EE0002054802054D02055202055702055C023F
:1004FE00056102056602056B0205700205750205AF
:10050E007A02057F02058402058902058EA20492F5
:10051E00A222A20492A322A20492A422A20492A531
:10052E0022A20492A622A20492A722A204928022C0
:10053E00A204928122A204928222A20492C322A237
:10054E0004928322A204928422A204928522A204FF
:10055E00928622A204928722A204929022A2049250
:10056E00CA22A20492CB22A204929122A2049292B7
:10057E0022A204929322A204929422A20492C42252
:04058E00A20492959C
:010592002246
:030719000142009A
:100DC000538EBFE4F589758B30758DF8D28ED2AB1A
:010DD0002200
:03001B00020E20B2
:030E200005423256
:030E2300AF4222B9
:0609C0008F348D358B36EB
:1009C600E4F537753803E5342440FF7B007A007977
:1009D600377528017D14120A85EF6007AE38153881
:1009E600EE70E3EF7041E5366011AE357411A8067E
:1009F600088002C333D8FCF5368003E4F536E536C5
:100A0600F45237E5364237753803E5342440FF7B28
:100A1600007A007937752E017D14120B29EF6007D5
:070A2600AE381538EE70E355
:010A2D0022A6
:100A2E00706F655F6C65640A0053775F5665723A46
:100A3E0056322E300A0048775F5665723A56322E7D
:100A4E00300A004A756E20303720323031380A00B5
:100A5E0031393A31303A30340A0077726974652090
:100A6E00313D007265616420313D007665720A0089
:070A7E00236C6F61640A00A4
:10071C004200D400000140644100D6004100D900E1
:0B072C004100D800013D00023E00002B
:100D3F00AD07AC06538EEF538EF7438E048CD6AFB0
:0A0D4F00058FD753AFFB438E10222F
:100C6B00438E017FCC7EFF120D3FE598543F4440ED
:100C7B00F598D2BCD2ACD29C53A23F439710C20280
:0A0C8B00E49000D6F09000D9F022AA
:030023000208E0F0
:0F08E000C0E0C083C082C0D075D000C006C00782
:0808EF00AFBA53BA7F30984400
:1008F700C29885993D20033CE53D640D6036900024
:10090700D8E0FE04F074002EF582E43400F583E5A8
:100917003DF0640A60079000D8E0B413D0D203908A
:1009270000D8E02400F582E43400F583E4F0900079
:02093700D8F0F6
:0B09390080B9309904C299C2028FBA45
:0D094400D007D006D0D0D082D083D0E032D2
:100593002003030206667BFF7A0A7979120D878EA0
:1005A300278F287524FF75250A7526797B017A0024
:1005B3007900120951EF70339000D8F0C2037BFF2A
:1005C3007A0A792E120D9C7BFF7A0A7937120D9CD9
:1005D3007BFF7A0A7944120D9C7BFF7A0A795112C8
:1005E3000D9C7BFF7A0A795E020D9C7BFF7A0A7968
:1005F30068120D878E278F287524FF75250A7526A7
:10060300687B017A007900120951EF700280227B26
:10061300FF7A0A7971120D878E278F287524FF754B
:10062300250A7526717B017A007900120951EF7052
:10063300079000D8F0C203227BFF7A0A797E120D5D
:10064300878E278F287524FF75250A75267E7B01E3
:100653007A007900120951EF70099000D8F0C203B3
:0406630075C76022D5
:100C3E009000D9E0FF9000D6E0FE6F601F20021CEE
:100C4E0074142EF582E43400F583E0F599D2029007
:0D0C5E0000D6E004F0C394C04002E4F02290
:100D06009000D9E02414F582E43400F583EFF090E6
:0D0D160000D9E004F0C394C04002E4F022D4
:100D9C0012011CFF600C120D06740129F9E43AFAD9
:030DAC0080EE22B4
:100C95009000D8E07005F53EF53F22EF253FF53F82
:100CA500E4353EF53ED3E53F9540E53E94004009E9
:090CB500E4F53EF53F9000D8F093
:010CBE002213
:1007D600020B6AE493A3F8E493A34003F68001F2C4
:1007E60008DFF48029E493A3F85407240CC8C33324
:1007F600C4540F4420C8834004F456800146F6DFF3
:10080600E4800B0102040810204080900667E47E15
:10081600019360BCA3FF543F30E509541FFEE493E7
:10082600A360010ECF54C025E060A840B8E493A3AE
:10083600FAE493A3F8E493A3C8C582C8CAC583CAD9
:10084600F0A3C8C582C8CAC583CADFE9DEE780BE91
:0107370000C1
:10002600E709F608DFFA8046E709F208DFFA803EBC
:1000360088828C83E709F0A3DFFA8032E309F608A9
:10004600DFFA8078E309F208DFFA807088828C8311
:10005600E309F0A3DFFA806489828A83E0A3F608C5
:10006600DFFA805889828A83E0A3F208DFFA804C9F
:1000760080D280FA80C680D4806980F28033801076
:1000860080A680EA809A80A880DA80E280CA8033DF
:1000960089828A83ECFAE493A3C8C582C8CCC58357
:1000A600CCF0A3C8C582C8CCC583CCDFE9DEE78027
:1000B6000D89828A83E493A3F608DFF9ECFAA9F0A6
:1000C600EDFB2289828A83ECFAE0A3C8C582C8CCFC
:1000D600C583CCF0A3C8C582C8CCC583CCDFEADE15
:1000E600E880DB89828A83E493A3F208DFF980CC77
:1000F60088F0EF60010E4E60C388F0ED2402B40470
:100106000050B9F582EB2402B4040050AF23234516
:06011600822390007673C5
:10011C00BB010689828A83E0225002E722BBFE02E1
:09012C00E32289828A83E4932214
:10013500BB010689828A83F0225002F722BBFE01A9
:02014500F322A3
:10014700EB9FF5F0EA9E42F0E99D42F0E89C45F00E
:010157002285
:100951008B218A228923AB24AA25A92612011CFEF8
:10096100AB21AA22A92312011CFF6E702BEF600D8F
:10097100E52815287002152714452770037F0022EA
:1009810074012523F523E43522F52274012526F58A
:1009910026E43525F52580BEAB21AA22A923120123
:1009A1001CFDD3EE6480F8ED64809840037F012242
:0F09B100AB24AA25A92612011CFFC3ED9FFF222C
:100D8700E4FFFE12011C600C0FEF70010E09E97001
:050D9700F20A80EF22CA
:00000001FF
