:030000000205FAFC
:0C05FA00787FE4F6D8FD75812C020641E4
:06048E0001270001280017
:0A0BBB00EFD3940040031F80F722DF
:100B6D00AE07EED3940040087FFF120BBB1E80F240
:010B7D002255
:100AF700C3EF9527F528600B8F27FF120A0DAF2844
:030B07001206F5DE
:010B0A0022C8
:1008AF0043BA807594FFE4F59375923FF591759671
:1008BF00FCF595F5B275B1C075B418F5B375CA0CE2
:1008CF00F5C9120B7E12001E1209E3D2AF120552A8
:0E08DF0012098C120BCC120AF7120BC580EF17
:10049400608000DA0000000000000000000000009E
:1004A4000000000000000000000000000000000048
:1004B4000000000000000000000000000000000038
:1004C4000000000000000000000000000000000028
:1004D4000000000000000000000000000000000018
:1004E4000000000000000000000000000000000008
:1004F40000000000000000000000000000000000F8
:1005040000000000000000000000000000000000E7
:080514000000000041015A0043
:07095E00F0740590FE81F02A
:100965007FFA90015AE0701E90FE82E020E606AE06
:10097500071FEE70F390FE82E054BFF0EF60079022
:06098500015AE04401F0FC
:01098B002249
:07000300AC07E490015AF084
:10000A0090015AE0700A43BA800412096153BA7F18
:01001A0022C3
:100A980090015AE0701443BA8090FE86EFF090FE01
:0B0AA800817402F012096553BA7F222E
:100A370012000A7F5A120A98120A47E4FF120A980C
:100A470090015AE0700F43BA8090FE817403F01250
:060A5700096553BA7F227D
:100A5D00E4FF90015AE060012243BA8090FE817458
:0D0A6D0004F012096590FE87E0FF53BA7F88
:010A7A002259
:100B470090015AE0700C43BA8090FE8212095E53FE
:030B5700BA7F2240
:100B0B0090015AE0700D43BA8090FE820412095E88
:040B1B0053BA7F2228
:100B8F0043BA8090FE817406F012096553BA7F2232
:100ACD0043BA8043BA3090FE8074E0F090FE82E429
:050ADD00F053BA7F2276
:100870008B238A248925120003EC25E0120A43AF5A
:1008800005120A98120A47E526D394004018AB23B4
:100890000525E525AA247002052414F912011C126D
:0F08A0000A43152680E1120B8F90015AE0FF22C8
:1007C9008B178A188919120003EC25E004120A43D1
:1007D900AF05120A98120A47E51AD39401401C1270
:1007E9000A5DAB170519E519AA187002051814F95D
:1007F900EF120162120B47151A80DD120A5DAB1761
:10080900AA18A919EF120162120B0B120B8F900192
:040819005AE0FF2280
:1008ED00120A377F12120A98120A477F78120A9855
:1008FD00120A47120B8F120A3712000A7F5B120A77
:10090D0098120A47120A5D8F80120B47120A5D8FEB
:09091D00A0120B0B120B8F80FEDF
:1009260000000000000000000000000000000000C1
:1009360000000000000000000000000000000000B1
:1009460000000000000000000000000000000000A1
:08095600000000000000000099
:10051C0042019800000229000042019300004101B1
:07052C00950042019600005A
:04001E0075C1262260
:040BC50043C11022F6
:1009B900EF252AF52AE43529F529900198E0FEA3C7
:1009C900E0FFF47002EEF46010C3EF952AEE95296A
:0909D9005007E4F529F52AB29655
:0109E20022F2
:1006F500E4F513F514900194E02FF0900193E034A4
:1007050000F0D3A3E094F4900193E09401404EE40B
:10071500F0A3F0A3E02440FF7B007A007913751A5B
:10072500017D101207C96313FFE4F514900195E0EC
:10073500FFAE14E513A806088002C313D8FC24FFF6
:100745009204AD141203A90514E514C3940440DC06
:0D075500900195E004F0C394044002E4F02C
:010762002274
:020253008F0812
:10025500785B7C017D017BFF7A0979267E007F38FA
:100265001200F6900197E02508F0900196E0340021
:10027500F0D3A3E094F4900196E0940150030203B7
:01028500A8D0
:10028600E4F509F50AF50EF50DF50CF50B750F01FC
:0B02960075100175115BF0A3F0F50975
:1002A100E50975F004A4245BF9740135F0FA7B01CA
:0F02B100E5092440FF751A107D301207C98F121E
:1002C0000509E509C3940440D8E4F509E4F50AAB4F
:1002D0000FAA10A911900003120135FF900002121D
:1002E00001354FFF900001120135FE12011C4E8FA7
:1002F000F0A4FFAEF0E4FCFDE50E2FF50EE50D3E9B
:10030000F50DED350CF50CEC350BF50B74042511E2
:10031000F511E43510F510050AE50AB404B1050934
:10032000E509B404A7AF0EAE0DAD0CAC0B7B407A63
:1003300042790F78001201B08F0E8E0D8D0C8C0B50
:10034000E47F787E0CFDFCAB0EAA0DA90CA80BD3A4
:10035000120242400A900198E4F0A37464F02274FF
:10036000FF7F0CFEFDFCAB0EAA0DA90CA80BD3124F
:100370000242400A900198E4F0A374FAF02274FF5C
:100380007F1DFEFDFCAB0EAA0DA90CA80BD312021B
:1003900042400B9001987402F0A374EEF02274FFB7
:0803A000900198F0A3F0D29641
:0103A8002232
:1003A9007EFFEFC39404500DEDC394045007EF256D
:1003B900E025E02DFEEEB41800400302048D900301
:1003C900CEF828287302041602041B020420020432
:1003D9002502042A02042F02043402043902043ECD
:1003E90002044302044802044D0204520204570263
:1003F900045C02046102046602046B0204700204D4
:100409007502047A02047F020484020489A2049218
:10041900A222A20492A322A20492A422A20492A537
:1004290022A20492A622A20492A722A204928022C6
:10043900A204928122A204928222A20492C322A23D
:1004490004928322A204928422A204928522A20405
:10045900928622A204928722A204929022A2049256
:10046900CA22A20492CB22A204929122A2049292BD
:1004790022A204929322A204929422A20492C42258
:04048900A2049295A2
:01048D00224C
:03053300011F00A5
:100B7E00538EBFE4F589758B30758DF8D28ED2AB5E
:010B8E002244
:03001B00020BC90C
:030BC900051F32D3
:030BCC00AF1F2236
:100B1F008D2BEF2440FF7B007A00792B7526017D0A
:040B2F001202087036
:100B33008D2CEF2440FF7B007A00792C7526017DF4
:040B43001402087020
:0E0B9F00E4FEEF2440FF751A017D100207C925
:0E0BAD00E4FEEF2440FF751A107D300207C9E8
:10081D00706F655F6D61737465720A0053775F5613
:10082D0065723A56322E300A0048775F5665723A35
:10083D0056322E300A004D6179203235203230315A
:10084D00380A0032303A31333A34320A007772695D
:10085D00746520313D007265616420313D0076651F
:03086D00720A000C
:100536004200D40000011E644100D6004100D900EB
:0B0546004100D800011B00021C000057
:100AB300AD07AC06538EEF538EF7438E048CD6AF3F
:0A0AC300058FD753AFFB438E1022BE
:1009E300438E017FCC7EFF120AB3E598543F444007
:1009F300F598D2BCD2ACD29C53A23F439710C2020B
:0A0A0300E49000D6F09000D9F02234
:030023000207636E
:10076300C0E0C083C082C0D075D000C007309844B9
:10077300C29885991B20033CE51B640D60369000ED
:10078300D8E0FF04F074002FF582E43400F583E52C
:100793001BF0640A60079000D8E0B413D0D2039032
:1007A30000D8E02400F582E43400F583E4F09000FF
:0207B300D8F07C
:1007B50080B9309904C299C202D007D0D0D082D076
:0407C50083D0E032CB
:100552002003030205F97BFF7A08796B120AE28E07
:10056200198F1A7516FF75170875186B7B017A00BB
:100572007900120686EF70339000D8F0C2037BFF39
:100582007A08791D120B5A7BFF7A087929120B5AC5
:100592007BFF7A087936120B5A7BFF7A087943126D
:1005A2000B5A7BFF7A087950020B5A7BFF7A087943
:1005B2005A120AE28E198F1A7516FF7517087518E6
:1005C2005A7B017A007900120686EF700280227B44
:1005D200FF7A087963120AE28E198F1A7516FF756F
:1005E20017087518637B017A007900120686EF708E
:0805F200069000D8F0C20322BC
:10098C009000D9E0FF9000D6E0FE6F601F20021CA3
:10099C0074142EF582E43400F583E0F599D20290BC
:0D09AC0000D6E004F0C394C04002E4F02245
:100A7B009000D9E02414F582E43400F583EFF09074
:0D0A8B0000D9E004F0C394C04002E4F02262
:100B5A0012011CFF600C120A7B740129F9E43AFAAB
:030B6A0080EE22F8
:100A0D009000D8E07005F51CF51D22EF251DF51D94
:100A1D00E4351CF51CD3E51D951EE51C940040091D
:090A2D00E4F51CF51D9000D8F061
:010A3600229D
:100606000208AFE493A3F8E493A34003F68001F253
:1006160008DFF48029E493A3F85407240CC8C333F5
:10062600C4540F4420C8834004F456800146F6DFC4
:10063600E4800B010204081020408090048EE47EC2
:10064600019360BCA3FF543F30E509541FFEE493B9
:10065600A360010ECF54C025E060A840B8E493A380
:10066600FAE493A3F8E493A3C8C582C8CAC583CAAB
:10067600F0A3C8C582C8CAC583CADFE9DEE780BE63
:0105510000A9
:10002600E709F608DFFA8046E709F208DFFA803EBC
:1000360088828C83E709F0A3DFFA8032E309F608A9
:10004600DFFA8078E309F208DFFA807088828C8311
:10005600E309F0A3DFFA806489828A83E0A3F608C5
:10006600DFFA805889828A83E0A3F208DFFA804C9F
:1000760080D280FA80C680D4806980F28033801076
:1000860080A680EA809A80A880DA80E280CA8033DF
:1000960089828A83ECFAE493A3C8C582C8CCC58357
:1000A600CCF0A3C8C582C8CCC583CCDFE9DEE78027
:1000B6000D89828A83E493A3F608DFF9ECFAA9F0A6
:1000C600EDFB2289828A83ECFAE0A3C8C582C8CCFC
:1000D600C583CCF0A3C8C582C8CCC583CCDFEADE15
:1000E600E880DB89828A83E493A3F208DFF980CC77
:1000F60088F0EF60010E4E60C388F0ED2402B40470
:100106000050B9F582EB2402B4040050AF23234516
:06011600822390007673C5
:10011C00BB010689828A83E0225002E722BBFE02E1
:09012C00E32289828A83E4932214
:10013500BB010CE58229F582E5833AF583E022507F
:1001450006E92582F8E622BBFE06E92582F8E222C9
:0D015500E58229F582E5833AF583E49322E3
:10016200BB010689828A83F0225002F722BBFE017C
:02017200F32276
:1001740075F008758200EF2FFFEE33FECD33CDCC42
:1001840033CCC58233C5829BED9AEC99E5829840C5
:100194000CF582EE9BFEED9AFDEC99FC0FD5F0D6A2
:1001A400E4CEFBE4CDFAE4CCF9A88222B800C1B9CC
:1001B4000059BA002DEC8BF084CFCECDFCE5F0CB0A
:1001C400F97818EF2FFFEE33FEED33FDEC33FCEB43
:1001D40033FB10D703994004EB99FB0FD8E5E4F9FE
:1001E400FA227818EF2FFFEE33FEED33FDEC33FCEB
:1001F400C933C910D7059BE99A4007EC9BFCE99ADF
:10020400F90FD8E0E4C9FAE4CCFB2275F010EF2F23
:10021400FFEE33FEED33FDCC33CCC833C810D70723
:100224009BEC9AE899400AED9BFDEC9AFCE899F85E
:0E0234000FD5F0DAE4CDFBE4CCFAE4C8F922F1
:10024200EB9FF5F0EA9E42F0E99D42F0E89C45F012
:010252002289
:100686008B138A148915AB16AA17A91812011CFE1A
:10069600AB13AA14A91512011CFF6E702BEF600D87
:1006A600E51A151A7002151914451970037F0022F0
:1006B60074012515F515E43514F51474012518F59E
:1006C60018E43517F51780BEAB13AA14A915120145
:1006D6001CFDD3EE6480F8ED64809840037F012210
:0F06E600AB16AA17A91812011CFFC3ED9FFF2224
:100AE200E4FFFE12011C600C0FEF70010E09E970A9
:050AF200F20A80EF2272
:00000001FF
