:0300000002057581
:0C057500787FE4F6D8FD7581450205BCD6
:0604AB0001100001110028
:0A0C8F00EFD3940040031F80F7220A
:100B9F00AD07AC06D3ED9400EC9400400C7FFF1230
:0A0BAF000C8FED1D70EE1C80EB2290
:100B4800C3EF9510F51160158F10FF120AFBAF1156
:0D0B5800120601AF11120A74AF111200262F
:010B6500226D
:1009B5007594FFE4F59375923FF5917596FCF59561
:1009C500F5B275B1C075B418F5B375CA0CF5C91291
:1009D5000C3D12001E120B83120AD11208ADD2AFC4
:1009E5001203D7120AA4120CA0120B48120C9980FC
:0109F500EF12
:1004B100608000DA00000000000000000000000081
:1004C100000000000000000000000000000000002B
:1004D100000000000000000000000000000000001B
:1004E100000000000000000000000000000000000B
:1004F10000000000000000000000000000000000FB
:1005010000000000000000000000000000000000EA
:1005110000000000000000000000000000000000DA
:1005210000000000000000000000000000000000CA
:0705310000000000011400AE
:0A0B250090FE82F0740590FE81F04E
:100B2F007FFF90FE82E020E602DFF790FE82E05426
:080B3F00BFF0EF700343140145
:010B4700228B
:0C0C6C0043BA807401120B2B53BA7F2294
:100C000043BA8090FE86EFF090FE817402F0120BE2
:050C10002F53BA7F2202
:060BEA0025E0FF120C00E3
:100BF00043BA8090FE817403F0120B2F53BA7F2208
:100BD300E4FF43BA8090FE817404F0120B2F90FE61
:060BE30087E0FF53BA7F1A
:010BE90022E9
:0B0C840043BA80E4120B2553BA7F2214
:0C0C780043BA807401120B2553BA7F228E
:100C4E0043BA8090FE817406F0120B2F53BA7F22A6
:100B830043BA8090FE13E0440CF043BA3090FE80E9
:0C0B930074E0F090FE82E4F053BA7F2280
:1009F6008B3F8A408941AE05AD07E4F514120C6CB5
:100A0600ED120BEAAF06120C00120BF0E542D3947E
:100A1600004018AB3F0541E541AA4070020540146D
:100A2600F91202B3120BEC154280E1120C4EAF1410
:010A3600229D
:100850008B428A438944AE07E4F514120C6CEE1205
:100860000BEAAF05120C00120BF0120C6CEE25E037
:1008700004120BECE545D39401401C120BD3AB42A0
:100880000544E544AA437002054314F9EF1202CC73
:10089000120C84154580DD120BD3AB42AA43A94448
:0D08A000EF1202CC120C78120C4EAF142295
:0E0C5E00000000000000000000000000000088
:1005380042016100000408272B2D2E42015A0000B9
:0E05480042015C000041015E0042015F0000C4
:04001E0075C1262260
:040C990043C1102221
:1008AD00E4900163F0C204120003C2967FFF120BA5
:1008BD009FD204120003D29674FF900161F0A3F051
:1008CD00FD7F14120906E4FD7F191209067DFF7FD5
:1008DD0012120906E4900163F0900163E0FFC394E6
:1008ED00045015EF75F005A42446FF7D011209068D
:0808FD00900163E004F080E1CA
:0109050022CF
:100A740090015BE02FF090015AE03400F0900161A6
:100A8400E0FEA3E0FFF47002EEF46013D390015B88
:0F0A9400E09F90015AE09E4006E4F0A3F0B29676
:010AA3002230
:10060100E4F521F522FEEFFD90015DE02DF0900172
:100611005CE03400F0D3A3E0946490015CE09400CA
:10062100405AE4F0A3F0A3E02408F8E6FF7B007A47
:100631000079217545017D10120850EF6003E4F542
:1006410021E4F522AF22E521A807088002C313D8CF
:10065100FC90015E30E006E0FFC2058004E0FFD2BD
:1006610005AD221202EF0522E522C3940440D59084
:0C067100015EE004F0C394044002E4F0D9
:01067D00225A
:10002600E4F521F522F523900160E02FF090015FC1
:10003600E03400F0D3A3E094F490015FE094015023
:04004600030201BCF4
:10004A00E4F524F525F529F528F527F526F0A3F09A
:02005A00F5248B
:10005C00E4F52A782B7C00FD7BFF7A0C795EFE7F21
:10006C000E12028D74082524F8E6FF7B007A0079C5
:10007C002B7545107D301208508F2AE52A7034F507
:10008C0025E52525E025E0FD242CF8E6FE742B2D36
:10009C00F8E6FDEDFFE4FCFDE5292FF529E5283E0A
:1000AC00F528ED3527F527EC3526F5260525E5252C
:0300BC00B404CEBB
:1000BF000524E524C394044094E4FF7E60FDFCAB6B
:1000CF0029AA28A927A826D31202DE401412067ED9
:1000DF007DAA7F12120906900161E4F0A37432F039
:1000EF002274FF7F0BFEFDFCAB29AA28A927A826A7
:1000FF00D31202DE4018E4FD7F191209067DAA7F94
:10010F0012120906900161E4F0A37496F022E47FC5
:10011F0051FEFDFCAB29AA28A927A826D31202DE7F
:10012F00404675220FE4F52475210374082524F841
:10013F00E6FF7B007A0079227542017D191209F6DC
:10014F008F23E5236007AF211521EF70DE0524E52E
:10015F0024C3940440D27DFF7F12120906900161DF
:10016F007401F0A374F4F02275220FE4F5247521C5
:10017F000374082524F8E6FF7B007A007922754284
:10018F00017D191209F68F23E5236007AF21152191
:10019F00EF70DE0524E524C3940440D27DFF7F1267
:0D01AF0012090674FF900161F0A3F0D296D2
:0101BC002220
:10067E00E4900163F0A3F0A3F0F539F53A9001642C
:10068E007403F0900164E0FFC364809480405B7B50
:10069E00007A00793A7D10120A37900163EFF070FC
:1006AE00419001657403F0900165E0FFC36480948E
:1006BE0080402FE53AA807088002C313D8FC30E02B
:1006CE0019900165E0FF7410A807088002C333D8A3
:1006DE00FC4239AD397F19020906900165E014F02C
:0A06EE0080C5900164E014F08099CB
:0106F80022DF
:1006F900E490016AF0A3F0A3F0F512F51390016BF1
:10070900F090016BE0FFC36480948450597B007AB8
:100719000079137D10120A3790016AEFF0703F904B
:10072900016CF090016CE0FFC364809484502FE564
:1007390013A807088002C313D8FC20E01990016CA4
:10074900E0FF7401A807088002C333D8FC4212AD48
:10075900127F1902090690016CE004F080C590012E
:060769006BE004F0809B30
:01076F002267
:1002EF007EFFEFC39406500DEDC394045007EF2526
:1002FF00E025E02DFE74082EFEB418004003020323
:10030F00D6900317F828287302035F0203640203D1
:10031F006902036E02037302037802037D020382F4
:10032F0002038702038C02039102039602039B02CE
:10033F0003A00203A50203AA0203AF0203B4020340
:10034F00B90203BE0203C30203C80203CD0203D2E4
:10035F00A20592A222A20592A322A20592A422A2F2
:10036F000592A522A20592A622A20592A722A20576
:10037F00928022A205928122A205928222A2059248
:10038F00C322A205928322A205928422A2059285FE
:10039F0022A205928622A205928722A2059290227E
:1003AF00A20592CA22A20592CB22A205929122A265
:1003BF0005929222A205929322A205929422A2055F
:0703CF0092C422A2059295E1
:0103D6002204
:10000300E4FCE4FBAF04AD03A20492051202EF0B80
:07001300BB04F10CBC04EB7F
:01001A0022C3
:030556000115008C
:100C3D00538EBFE4F589758B30758DF8D28ED2AB9E
:010C4D002284
:03001B00020C9D37
:030C9D0005153208
:030CA000AF15226B
:040906008F3B8D3C5A
:10090A00E4900166F0A3E53CF0A37403F0E4A3F0DD
:10091A00900166F09001687403F0900166E0240883
:10092A00F8E6FF7B007A00793C754201AD3B12097B
:10093A00F6900169EFF0600A900168E0FF14F0EFA9
:10094A0070D8900166E004F0E0C3940440C69001B8
:03095A0069E0FF52
:01095D002277
:0A0A37008F3B8D3C8B3D8A3E893FCA
:100A4100E4900166F0A37403F07408253BF8E6FF17
:100A5100AB3DAA3EA93F754501AD3C12085090013E
:100A610066EFF06008A3E0FF14F0EF70DC90016620
:020A7100E0FFA4
:010A73002260
:10095E00706F655F6C65640A0053775F5665723A17
:10096E0056322E300A0048775F5665723A56322E4E
:10097E00300A004A756E20313820323031380A0084
:10098E0031343A31303A34310A0077726974652065
:10099E00313D007265616420313D007665720A005A
:0709AE00236C6F61640A0075
:100559004200D40000010F644100D6004100D900D7
:0B0569004100D800010C00020D000052
:100BB900AD07AC06538EEF538EF7438E048CD6AF38
:0A0BC900058FD753AFFB438E1022B7
:100AD100438E017FCC7EFF120BB9E598543F444011
:100AE100F598D2BCD2ACD29C53A23F439710C2021C
:0A0AF100E49000D6F09000D9F02246
:0300230002077061
:0F077000C0E0C083C082C0D075D000C006C007F3
:08077F00AFBA53BA7F30984471
:10078700C29885990C20033CE50C640D60369000F7
:10079700D8E0FE04F074002EF582E43400F583E51A
:1007A7000CF0640A60079000D8E0B413D0D203902D
:1007B70000D8E02400F582E43400F583E4F09000EB
:0207C700D8F068
:0B07C90080B9309904C299C2028FBAB7
:0D07D400D007D006D0D0D082D083D0E03244
:1003D7002003030204AA7BFF7A0979A9120C158E60
:1003E700278F287524FF7525097526A97B017A00B3
:1003F70079001207E1EF70339000D8F0C2037BFF5A
:100407007A09795E120C2A7BFF7A097967120C2A1E
:100417007BFF7A097974120C2A7BFF7A097981129A
:100427000C2A7BFF7A09798E020C2A7BFF7A0979DD
:1004370098120C158E278F287524FF7525097526A8
:10044700987B017A0079001207E1EF700280227B26
:10045700FF7A0979A1120C158E278F287524FF754D
:1004670025097526A17B017A0079001207E1EF7053
:10047700079000D8F0C203227BFF7A0979AE120CED
:10048700158E278F287524FF7525097526AE7B01E4
:100497007A0079001207E1EF70099000D8F0C203E3
:0404A70075C7602293
:100AA4009000D9E0FF9000D6E0FE6F601F20021C8A
:100AB40074142EF582E43400F583E0F599D20290A3
:0D0AC40000D6E004F0C394C04002E4F0222C
:100B66009000D9E02414F582E43400F583EFF09088
:0D0B760000D9E004F0C394C04002E4F02276
:100C2A001202B3FF600C120B66740129F9E43AFA56
:030C3A0080EE2227
:100AFB009000D8E07005F50DF50E22EF250EF50EE2
:100B0B00E4350DF50DD3E50E950FE50D9400400979
:090B1B00E4F50DF50E9000D8F090
:010B240022AE
:100581000209B5E493A3F8E493A34003F68001F2D2
:1005910008DFF48029E493A3F85407240CC8C3337B
:1005A100C4540F4420C8834004F456800146F6DF4A
:1005B100E4800B01020408102040809004ABE47E2B
:1005C100019360BCA3FF543F30E509541FFEE4933F
:1005D100A360010ECF54C025E060A840B8E493A306
:1005E100FAE493A3F8E493A3C8C582C8CAC583CA31
:1005F100F0A3C8C582C8CAC583CADFE9DEE780BEE9
:010574000086
:1001BD00E709F608DFFA8046E709F208DFFA803E24
:1001CD0088828C83E709F0A3DFFA8032E309F60811
:1001DD00DFFA8078E309F208DFFA807088828C8379
:1001ED00E309F0A3DFFA806489828A83E0A3F6082D
:1001FD00DFFA805889828A83E0A3F208DFFA804C07
:10020D0080D280FA80C680D4806980F280338010DD
:10021D0080A680EA809A80A880DA80E280CA803346
:10022D0089828A83ECFAE493A3C8C582C8CCC583BE
:10023D00CCF0A3C8C582C8CCC583CCDFE9DEE7808E
:10024D000D89828A83E493A3F608DFF9ECFAA9F00D
:10025D00EDFB2289828A83ECFAE0A3C8C582C8CC63
:10026D00C583CCF0A3C8C582C8CCC583CCDFEADE7C
:10027D00E880DB89828A83E493A3F208DFF980CCDE
:10028D0088F0EF60010E4E60C388F0ED2402B404D7
:10029D000050B9F582EB2402B4040050AF2323457E
:0602AD00822390020D7394
:1002B300BB010689828A83E0225002E722BBFE0249
:0902C300E32289828A83E493227C
:1002CC00BB010689828A83F0225002F722BBFE0111
:0202DC00F3220B
:1002DE00EB9FF5F0EA9E42F0E99D42F0E89C45F076
:0102EE0022ED
:1007E1008B218A228923AB24AA25A9261202B3FED2
:1007F100AB21AA22A9231202B3FF6E702BEF600D69
:10080100E52815287002152714452770037F00225B
:1008110074012523F523E43522F52274012526F5FB
:1008210026E43525F52580BEAB21AA22A923120293
:10083100B3FDD3EE6480F8ED64809840037F01221C
:0F084100AB24AA25A9261202B3FFC3ED9FFF2205
:100C1500E4FFFE1202B3600C0FEF70010E09E970DC
:050C2500F20A80EF223D
:00000001FF
