:0300000002098270
:0C098200787FE4F6D8FD7581430209C9B6
:0607E700011500011600DF
:0A0F1D00EFD3940040031F80F72279
:100E4400AD07AC06D3ED9400EC9400400C7FFF1288
:0A0E54000F1DED1D70EE1C80EB2257
:100DED00C3EF9515F51660158F15FF120DA0AF16F3
:0D0DFD00120A0EAF16120CECAF16120026F3
:010E0A0022C5
:100C6A007594FFE4F59375923FF5917596FCF595A9
:100C7A00F5B275B1C075B418F5B375CA0CF5C912D9
:100C8A000ECB12001E120E28120D761202B1D2AF2E
:100C9A00120713120D49120F2E120DED120F278093
:010CAA00EF5A
:1007ED00608000DA00000000000000000000000042
:1007FD0000000000000000000000000000000000EC
:10080D0000000000000000000000000000000000DB
:10081D0000000000000000000000000000000000CB
:10082D0000000000000000000000000000000000BB
:10083D0000000000000000000000000000000000AB
:10084D00000000000000000000000000000000009B
:10085D00000000000000000000000000000000008B
:07086D00000000000117006C
:0A0DCA0090FE82F0740590FE81F0A7
:100DD4007FFF90FE82E020E602DFF790FE82E0547F
:080DE400BFF0EF70034317019B
:010DEC0022E4
:0C0EFA0043BA807401120DD053BA7F225D
:100E8E0043BA8090FE86EFF090FE817402F0120D50
:050E9E00D453BA7F22CD
:060E780025E0FF120E8EC2
:100E7E0043BA8090FE817403F0120DD453BA7F22D0
:10000300E4FF43BA8090FE817404F0120DD490FE95
:0600130087E0FF53BA7FF5
:0100190022C4
:0B0F120043BA80E4120DCA53BA7F22DC
:0C0F060043BA807401120DCA53BA7F2256
:100EDC0043BA8090FE817406F0120DD453BA7F226F
:100E280043BA8090FE13E0440CF043BA3090FE8041
:0C0E380074E0F090FE82E4F053BA7F22D8
:100CAB008B408A418942AE05AD07E4F517120EFA67
:100CBB00ED120E78AF06120E8E120E7EE543D39414
:100CCB00004018AB400542E542AA417002054114B1
:100CDB00F9120511120E7A154380E1120EDCAF17D3
:010CEB0022E6
:100B6B008B408A418942AE07E4F517120EFAEE125A
:100B7B000E78AF05120E8E120E7E120EFAEE25E0D7
:100B8B0004120E7AE543D39401401C120003AB40D0
:100B9B000542E542AA417002054114F9EF12052AFC
:100BAB00120F12154380DD120003AB40AA41A9427C
:0D0BBB00EF12052A120F06120EDCAF1722F2
:0E0EEC000000000000000000000000000000F8
:100874004201630000040D272B2D2E410165004227
:10088400015A000042015C000042015E0000410187
:070894006000420161000059
:04001E0075C1262260
:040F270043C1102290
:1002B100E4900166F0A3F0A3F0A3F0A37403F0E4CB
:1002C100900166F0E4900167F0900167E0FDC3944E
:1002D100045012900166E0FFC20412054D900167BF
:1002E100E004F080E4900166E004F0E0C39404408F
:1002F100D3C2967FFF7E4F120E44E4900166F0E474
:10030100900167F0900167E0FDC3940450129001E1
:1003110066E0FFD20412054D900167E004F080E42D
:10032100900166E004F0E0C3940440D3D29674FFD8
:10033100900163F0A3F0FF120C1F9001687401F0AB
:10034100E4900166F0E4900167F090016A7403F0B3
:10035100900166E0240DF8E6FFA3E075F005A42402
:1003610046FD7B017A017968754301120CAB90015E
:1003710069EFF06008A3E0FF14F0EF70D39001671C
:10038100E004F0E0C3940440C1900166E004F0E0B1
:10039100C3940440B0E4900168F0900166F09001CC
:1003A1006A7403F0900166E0240DF8E6FF7B017AA0
:1003B1000179687543017D19120CAB900169EFF069
:1003C1006008A3E0FF14F0EF70DA900166E004F03A
:1003D100E0C3940440C890016874FFF0E4900166A2
:1003E100F090016A7403F0900166E0240DF8E6FFD5
:1003F1007B017A0179687543017D12120CAB900182
:1004010069EFF06008A3E0FF14F0EF70DA90016685
:09041100E004F0E0C3940440C8CB
:01041A0022BF
:100D1C00900165E0C39410502390015BE02FF0909C
:100D2C00015AE03400F0D3A3E094C890015AE09447
:0C0D3C000040091208BA900165E004F0C4
:010D48002288
:100CEC0090015DE02FF090015CE03400F090016326
:100CFC00E0FEA3E0FFF47002EEF46013D390015D0C
:0F0D0C00E09F90015CE09E4006E4F0A3F0B296F9
:010D1B0022B5
:100A0E00E4F521F522FEEFFD90015FE02DF090015F
:100A1E005EE03400F0D3A3E0946490015EE09400B5
:100A2E00405AE4F0A3F0A3E0240DF8E6FF7B007A31
:100A3E000079217543017D10120B6BEF6003E4F515
:100A4E0021E4F522AF22E521A807088002C313D8BE
:100A5E00FC90016030E006E0FFC2048004E0FFD2AB
:100A6E0004AD2212054D0522E522C3940440D59013
:0C0A7E000160E004F0C394044002E4F0C6
:010A8A002249
:10002600E4F521F522F523900162E02FF0900161BD
:10003600E03400F0D3A3E094F4900161E094015021
:04004600030202B0FF
:10004A00E4F524F525F529F528F527F526F0A3F09A
:02005A00F5248B
:10005C00E4F52A782B7C00FD7BFF7A0E79ECFE7F91
:10006C000E1204EB740D2524F8E6FF7B007A007960
:10007C002B7543107D30120B6B8F2AE52A7034F5EB
:10008C0025E52525E025E0FD242CF8E6FE742B2D36
:10009C00F8E6FDEDFFE4FCFDE5292FF529E5283E0A
:1000AC00F528ED3527F527EC3526F5260525E5252C
:0300BC00B404CEBB
:1000BF000524E524C394044094E47F407E1FFDFC97
:1000CF00AB29AA28A927A826D312053C4047120618
:1000DF00357522AAE4F524752103740D2524F8E65D
:1000EF00FF7B007A0079227543017D12120CAB8FD2
:1000FF0023E5236007AF211521EF70DE0524E524EA
:10010F00C3940440D29001657410F0900163E4F041
:10011F00A37432F022E47FE07E15FDFCAB29AA2800
:10012F00A927A826D312053C4077E4F522F52475BC
:10013F002103740D2524F8E6FF7B007A00792275E0
:10014F0043017D19120CAB8F23E5236007AF2115F7
:10015F0021EF70DE0524E524C3940440D27522AA52
:10016F00E4F524752103740D2524F8E6FF7B007A4E
:10017F000079227543017D12120CAB8F23E52360AA
:10018F0007AF211521EF70DE0524E524C394044049
:10019F00D29001657410F0900163E4F0A37496F0AF
:1001AF0022E47F607E09FDFCAB29AA28A927A82697
:1001BF00D312053C407975220FE4F52475210374A1
:1001CF000D2524F8E6FF7B007A0079227543017D27
:1001DF0019120CAB8F23E5236007AF211521EF70A8
:1001EF00DE0524E524C3940440D27522FFE4F524F0
:1001FF00752103740D2524F8E6FF7B007A00792220
:10020F007543017D12120CAB8F23E5236007AF21DD
:10021F001521EF70DE0524E524C3940440D290012C
:10022F00657410F09001637401F0A374F4F02275FB
:10023F00220FE4F524752103740D2524F8E6FF7BC6
:10024F00007A0079227543017D19120CAB8F23E5DB
:10025F00236007AF211521EF70DE0524E524C39439
:10026F000440D27522FFE4F524752103740D252473
:10027F00F8E6FF7B007A0079227543017D12120C9C
:10028F00AB8F23E5236007AF211521EF70DE052427
:10029F00E524C3940440D274FF900163F0A3F0D21D
:0102AF0096B8
:0102B000222B
:10063500E4900166F0A3F0A3F0F539F53AF53B90A7
:1006450001677403F0900167E0C3648094805003F0
:0306550002071287
:10065800E4F53C753D03900167E0240DF8E6FF7B67
:10066800007A0079397543017D10120B6B8F3CE5D8
:100678003C6007AF3D153DEF70DCE53C60030207C9
:10068800099001687403F0900168E0FFC3648094E6
:1006980080406EE539A807088002C313D8FC30E013
:1006A800587F64120E0B900167E02431FF120E0B85
:1006B800900168E02431FF120E0B7F0A120E0B9096
:1006C8000168E0FF7410A807088002C333D8FC4211
:1006D8003B753D03900167E0240DF8E6FF7B007A47
:1006E80000793B7543017D19120CAB8F3CE53C60EA
:1006F80019AF3D153DEF70DC22900168E014F080E1
:01070800866A
:09070900900167E014F002064AB9
:0107120022C4
:1008BA00E490016EF0A3F0A3F0F508F509F50A90AB
:1008CA00016FF090016FE0C36480948440030209D1
:0108DA00819C
:1008DB00E4F50B750C0390016FE0240DF8E6FF7B3C
:1008EB00007A00790A7543017D10120B6B8F0BE5B3
:1008FB000B6007AF0C150CEF70DCE50B706F900104
:10090B0070F0900170E0FFC364809484505FE50A3F
:10091B00A807088002C313D8FC20E0497F65120E9C
:10092B000B90016FE02431FF120E0B900170E0244D
:10093B0031FF120E0B7F0A120E0B75090F750C038C
:10094B0090016FE0240DF8E6FF7B007A00790975C2
:10095B0043017D19120CAB8F0BE50B6019AF0C1516
:0D096B000CEF70DC22900170E004F080952C
:0909780090016FE004F00208CDCB
:010981002253
:020C1F008F2123
:100C2100E490016BF0A3F0A37403F0E490016BF086
:100C310090016D7403F090016BE0240DF8E6FF7BE9
:100C4100007A0079217543017D14120CAB90016C7F
:100C5100EFF06008A3E0FF14F0EF70DA90016BE0B1
:080C610004F0E0C3940440C854
:010C69002268
:10054D007EFFEFC39404500DEDC394045007EF25C7
:10055D00E025E02DFE74082EFEB4180040030206BF
:10056D0034900575F82828730205BD0205C20205F1
:10057D00C70205CC0205D10205D60205DB0205E056
:10058D000205E50205EA0205EF0205F40205F9028E
:10059D0005FE02060302060802060D0206120206F9
:1005AD001702061C02062102062602062B02063041
:1005BD00A20492A222A20492A322A20492A422A295
:1005CD000492A522A20492A622A20492A722A2041A
:1005DD00928022A204928122A204928222A20492EB
:1005ED00C322A204928322A204928422A2049285A1
:1005FD0022A204928622A204928722A20492902221
:10060D00A20492CA22A20492CB22A204929122A207
:10061D0004929222A204929322A204929422A20402
:07062D0092C422A204929581
:0106340022A3
:03089B0001180041
:100ECB00538EBFE4F589758B30758DF8D28ED2AB0E
:010EDB0022F4
:03001B00020F2BA6
:030F2B0005183274
:030F2E00AF1822D7
:100BC800706F655F6C65640A0053775F5665723AAB
:100BD80056322E300A0048775F5665723A56322EE2
:100BE800300A004A756E20313720323031380A0019
:100BF80031393A34323A34300A00777269746520F0
:100C0800313D007265616420313D007665720A00ED
:070C1800236C6F61640A0008
:10089E004200D400000114644100D6004100D9008A
:0B08AE004100D8000111000212000000
:100E5E00AD07AC06538EEF538EF7438E048CD6AF90
:0A0E6E00058FD753AFFB438E10220F
:100D7600438E017FCC7EFF120E5EE598543F4440C1
:100D8600F598D2BCD2ACD29C53A23F439710C20274
:0A0D9600E49000D6F09000D9F0229E
:03002300020A8B43
:0F0A8B00C0E0C083C082C0D075D000C006C007D5
:080A9A00AFBA53BA7F30984453
:100AA200C29885991120033CE511640D60369000CF
:100AB200D8E0FE04F074002EF582E43400F583E5FC
:100AC20011F0640A60079000D8E0B413D0D203900A
:100AD20000D8E02400F582E43400F583E4F09000CD
:020AE200D8F04A
:0B0AE40080B9309904C299C2028FBA99
:0D0AEF00D007D006D0D0D082D083D0E03226
:100713002003030207E67BFF7A0C7913120EA38EE4
:10072300278F287524FF75250C7526137B017A0006
:100733007900120AFCEF70339000D8F0C2037BFFFC
:100743007A0B79C8120EB87BFF7A0B79D1120EB8E7
:100753007BFF7A0B79DE120EB87BFF7A0B79EB12F3
:100763000EB87BFF7A0B79F8020EB87BFF7A0C790F
:1007730002120EA38E278F287524FF75250C75266C
:10078300027B017A007900120AFCEF700280227B5F
:10079300FF7A0C790B120EA38E278F287524FF7511
:1007A300250C75260B7B017A007900120AFCEF7089
:1007B300079000D8F0C203227BFF7A0C7918120E3F
:1007C300A38E278F287524FF75250C7526187B01AA
:1007D3007A007900120AFCEF70099000D8F0C20386
:0407E30075C7602254
:100D49009000D9E0FF9000D6E0FE6F601F20021CE2
:100D590074142EF582E43400F583E0F599D20290FB
:0D0D690000D6E004F0C394C04002E4F02284
:100E0B009000D9E02414F582E43400F583EFF090E0
:0D0E1B0000D9E004F0C394C04002E4F022CE
:100EB800120511FF600C120E0B740129F9E43AFABD
:030EC80080EE2297
:100DA0009000D8E07005F512F51322EF2513F51326
:100DB000E43512F512D3E5139514E51294004009B9
:090DC000E4F512F5139000D8F0DF
:010DC9002207
:10098E00020C6AE493A3F8E493A34003F68001F209
:10099E0008DFF48029E493A3F85407240CC8C3336A
:1009AE00C4540F4420C8834004F456800146F6DF39
:1009BE00E4800B01020408102040809007E7E47EDB
:1009CE00019360BCA3FF543F30E509541FFEE4932E
:1009DE00A360010ECF54C025E060A840B8E493A3F5
:1009EE00FAE493A3F8E493A3C8C582C8CAC583CA20
:1009FE00F0A3C8C582C8CAC583CADFE9DEE780BED8
:0108B900003E
:10041B00E709F608DFFA8046E709F208DFFA803EC3
:10042B0088828C83E709F0A3DFFA8032E309F608B0
:10043B00DFFA8078E309F208DFFA807088828C8318
:10044B00E309F0A3DFFA806489828A83E0A3F608CC
:10045B00DFFA805889828A83E0A3F208DFFA804CA6
:10046B0080D280FA80C680D4806980F2803380107D
:10047B0080A680EA809A80A880DA80E280CA8033E6
:10048B0089828A83ECFAE493A3C8C582C8CCC5835E
:10049B00CCF0A3C8C582C8CCC583CCDFE9DEE7802E
:1004AB000D89828A83E493A3F608DFF9ECFAA9F0AD
:1004BB00EDFB2289828A83ECFAE0A3C8C582C8CC03
:1004CB00C583CCF0A3C8C582C8CCC583CCDFEADE1C
:1004DB00E880DB89828A83E493A3F208DFF980CC7E
:1004EB0088F0EF60010E4E60C388F0ED2402B40477
:1004FB000050B9F582EB2402B4040050AF2323451E
:06050B00822390046B73D3
:10051100BB010689828A83E0225002E722BBFE02E8
:09052100E32289828A83E493221B
:10052A00BB010689828A83F0225002F722BBFE01B0
:02053A00F322AA
:10053C00EB9FF5F0EA9E42F0E99D42F0E89C45F015
:01054C00228C
:100AFC008B218A228923AB24AA25A926120511FE53
:100B0C00AB21AA22A923120511FF6E702BEF600DE9
:100B1C00E52815287002152714452770037F00223D
:100B2C0074012523F523E43522F52274012526F5DD
:100B3C0026E43525F52580BEAB21AA22A923120572
:100B4C0011FDD3EE6480F8ED64809840037F0122A0
:0F0B5C00AB24AA25A926120511FFC3ED9FFF2286
:100EA300E4FFFE120511600C0FEF70010E09E970EB
:050EB300F20A80EF22AD
:00000001FF
