:03000000020615E0
:0C061500787FE4F6D8FD75814102065C98
:06054C0001110001120084
:100C0400C3EF9511F51260158F11FF120BB7AF12D8
:0D0C1400120879AF12120B32AF1212022635
:010C210022B0
:1009FF007594FFE4F59375923FF5917596FCF59517
:100A0F00F5B275B1C075B418F5B375CA0CF5C91246
:100A1F000D10120C3F120B8D12001E1208E7D2AFF1
:100A2F00120478120B60120D65120C04120D5E8009
:010A3F00EFC7
:10055200608000DA000000000000000000000000DF
:100562000000000000000000000000000000000089
:100572000000000000000000000000000000000079
:100582000000000000000000000000000000000069
:100592000000000000000000000000000000000059
:1005A2000000000000000000000000000000000049
:1005B2000000000000000000000000000000000039
:1005C2000000000000000000000000000000000029
:0705D200000000000115000C
:0A0BE10090FE82F0740590FE81F092
:100BEB007FFF90FE82E020E602DFF790FE82E0546A
:080BFB00BFF0EF700343150188
:010C030022CE
:0C0D310043BA807401120BE753BA7F2212
:100CD30043BA8090FE86EFF090FE817402F0120B0F
:050CE300EB53BA7F2273
:060CBD0025E0FF120CD33C
:100CC30043BA8090FE817403F0120BEB53BA7F2278
:100C8F00E4FF43BA8090FE817404F0120BEB90FEE8
:060C9F0087E0FF53BA7F5D
:010CA500222C
:0B0D490043BA80E4120BE153BA7F2292
:0C0D3D0043BA807401120BE153BA7F220C
:100D210043BA8090FE817406F0120BEB53BA7F2216
:100C3F0043BA8090FE13E0440CF043BA3090FE802C
:0C0C4F0074E0F090FE82E4F053BA7F22C3
:100A40008B3C8A3D893EAE05AD07E4F515120D31AC
:100A5000ED120CBDAF06120CD3120CC3E53FD394BC
:100A6000004018AB3C053EE53EAA3D7002053D1432
:100A7000F912011C120CBF153F80E1120D21AF15B8
:010A80002253
:10094B008B3E8A3F8940AE07E4F515120D31EE124E
:10095B000CBDAF05120CD3120CC3120D31EE25E0FA
:10096B0004120CBFE541D39401401C120C8FAB3E1B
:10097B000540E540AA3F7002053F14F9EF1201351F
:10098B00120D49154180DD120C8FAB3EAA3FA940D9
:0D099B00EF120135120D3D120D21AF152296
:100CA600706F655F6C65640A00000000000000005C
:070CB6000000000000000037
:1005D90042016000000409272B2D2E42015A000018
:0D05E90042015C000001080042015E0000BC
:0A0D5400EFD3940040031F80F72244
:100C5B00AD07AC06D3ED9400EC9400400C7FFF1273
:0A0C6B000D54ED1D70EE1C80EB220D
:04001E0075C1262260
:040D5E0043C110225B
:1008E700E4900162F0C204120003C2967FFF7E2FDC
:1008F700120C5BD204120003D29674FF900160F0D1
:10090700A3F07DAA7F12120ABE7DFF7F14120ABED2
:100917007D0F7F19120ABEE4900162F0900162E038
:10092700FFC394045015EF75F005A42446FF7D011D
:10093700120ABE900162E004F080E17BFF7A0C7935
:04094700A6020CFDFB
:100B3200900160E0FCA3E0FDF47002ECF4601E9012
:100B4200015BE02FF090015AE03400F0D3A3E09D66
:0D0B520090015AE09C4006E4F0A3F0B2963A
:010B5F002273
:10087900E4F521F522FEEFFD90015DE02DF09001F8
:100889005CE03400F0D3A3E0946490015CE0940050
:10089900404BE4F0A3F0FB7A0079217D10AF0812F8
:1008A9000A81EF6003E4F521E4F522AF22E521A8EE
:1008B90007088002C313D8FC30E004C2058002D2C5
:1008C90005AD22AF081203900522E522C394044026
:0D08D900DA0508E508C394044003E4F508BF
:0108E60022EF
:10022600E4900162F090015FE02FF090015EE0340F
:1002360000F0D3A3E094F490015EE0940150030231
:02024600038F24
:10024800E4F521F522F526F525F524F523F0A3F0AC
:02025800F5218E
:10025A0078277C007D007BFF7A0C79AF7E007F0EC9
:10026A001200F674092521F8E6FF7B007A00792747
:10027A007541107D3012094B900162EFF07034F530
:10028A0022E52225E025E0FD2428F8E6FE74272D44
:10029A00F8E6FDEDFFE4FCFDE5262FF526E5253E13
:1002AA00F525ED3524F524EC3523F5230522E52241
:0302BA00B404CEBB
:0902BD000521E521C394044094DD
:1002C60085262A8525298524288523277F69120CDA
:1002D600227F3D120C22AF2AAE29AD28AC27EC4D69
:1002E6004E4F602BE47B0AFAF9F8120183EB2430B7
:1002F600FF120C22AF2AAE29AD28AC27E47B0AFAFE
:0F030600F9F81201838F2A8E298D288C2780C742
:10031500E47F407E1FFDFCAB26AA25A924A823D394
:10032500120215400C900160E4F0A37428F0020657
:10033500A1E47FC07E12FDFCAB26AA25A924A82333
:10034500D3120215400A900160E4F0A37496F022DE
:10035500E47F607E09FDFCAB26AA25A924A823D34A
:10036500120215400E9001607401F0A374F4F07D43
:10037500FF800B74FF900160F0A3F0D296FD7F140F
:0A038500120ABE7D0F7F19120ABE96
:01038F00224B
:1006A100E4900163F0A3F0A3F0F535F53690016411
:1006B1007403F0900164E0FFC36480948040607B28
:1006C100007A0079357D10120A81900163EFF07094
:1006D100469001657403F0900165E0FFC364809466
:1006E100804034E535A807088002C313D8FC30E008
:1006F1001E900165E0FF7410A807088002C333D87B
:10070100FC4236900164E0FFAB367D19020AF99094
:0F0711000165E014F080C0900164E014F0809462
:0107200022B6
:10072100E4900168F0A3F0A3F0F513F514900169CA
:10073100F0900169E0FFC39404505C7B007A00797A
:10074100137D10120A81900168EFF0704290016AE6
:10075100F090016AE0FFC394045034E513A8070840
:100761008002C313D8FC20E01E90016AE0FF7401EF
:10077100A807088002C333D8FC4214900169E0FF46
:10078100AB147D19020AF990016AE004F080C2906D
:070791000169E004F0809A09
:01079800223E
:100390007EFFEFC39406500DEDC394045007EF2584
:1003A000E025E02DFE74082EFEB418004003020480
:1003B000779003B8F82828730204000204050204A9
:1003C0000A02040F02041402041902041E02042388
:1003D00002042802042D02043202043702043C0203
:1003E000044102044602044B020450020455020474
:1003F0005A02045F02046402046902046E02047378
:10040000A20592A222A20592A322A20592A422A250
:100410000592A522A20592A622A20592A722A205D4
:10042000928022A205928122A205928222A20592A6
:10043000C322A205928322A205928422A20592855C
:1004400022A205928622A205928722A205929022DC
:10045000A20592CA22A20592CB22A205929122A2C3
:1004600005929222A205929322A205929422A205BD
:0704700092C422A20592953F
:010477002262
:10000300E4FCE4FBAF04AD03A20492051203900BDE
:07001300BB04F10CBC04EB7F
:01001A0022C3
:0305F600011600EB
:100D1000538EBFE4F589758B30758DF8D28ED2ABCA
:010D200022B0
:03001B00020D6271
:030D620005163241
:030D6500AF1622A4
:040ABE008F358D36AD
:100AC200E4900163F0A3F0F0900164E0FFC39404AA
:100AD200501F900163E025E0F0E0FEC006AB36ADAA
:100AE20035120AF9D0E04F900163F0A3E004F080E0
:060AF200D7900163E0FF54
:010AF80022DB
:040AF9008F378D386E
:100AFD00E4900166F0A37403F08B3974092537F87F
:100B0D00E6FF7B007A007939753F01AD38120A4056
:100B1D00900166EFF06008A3E0FF14F0EF70DC9039
:040B2D000166E0FF7E
:010B310022A1
:0A0A81008F378D388B398A3A893B94
:100A8B00E4900166F0A37403F074092537F8E6FFD0
:100A9B00AB39AA3AA93B754101AD3812094B90010C
:100AAB0066EFF06008A3E0FF14F0EF70DC900166D6
:020ABB00E0FF5A
:010ABD002216
:1009A800706F655F6C65640A0053775F5665723ACD
:1009B80056322E300A0048775F5665723A56322E04
:1009C800300A004A756E20323320323031380A003E
:1009D80031333A35343A30380A0077726974652011
:1009E800313D007265616420313D007665720A0010
:0709F800236C6F61640A002B
:1005F9004200D400000110644100D6004100D90036
:0B0609004100D800010D00020E0000AF
:100C7500AD07AC06538EEF538EF7438E048CD6AF7B
:0A0C8500058FD753AFFB438E1022FA
:100B8D00438E017FCC7EFF120C75E598543F444097
:100B9D00F598D2BCD2ACD29C53A23F439710C2025F
:0A0BAD00E49000D6F09000D9F02289
:0300230002079938
:0F079900C0E0C083C082C0D075D000C006C007CA
:0807A800AFBA53BA7F30984448
:1007B000C29885990D20033CE50D640D60369000CC
:1007C000D8E0FE04F074002EF582E43400F583E5F1
:1007D0000DF0640A60079000D8E0B413D0D2039003
:1007E00000D8E02400F582E43400F583E4F09000C2
:0207F000D8F03F
:0B07F20080B9309904C299C2028FBA8E
:0D07FD00D007D006D0D0D082D083D0E0321B
:1004780020030302054B7BFF7A0979F3120CE88EFF
:10048800278F287524FF7525097526F37B017A00C7
:10049800790012080AEF70339000D8F0C2037BFF8E
:1004A8007A0979A8120CFD7BFF7A0979B1120CFD43
:1004B8007BFF7A0979BE120CFD7BFF7A0979CB1292
:1004C8000CFD7BFF7A0979D8020CFD7BFF7A09794C
:1004D800E2120CE88E278F287524FF7525097526EA
:1004E800E27B017A00790012080AEF700280227B11
:1004F800FF7A0979EB120CE88E278F287524FF758F
:1005080025097526EB7B017A00790012080AEF703D
:10051800079000D8F0C203227BFF7A0979F8120C01
:10052800E88E278F287524FF7525097526F87B0125
:100538007A00790012080AEF70099000D8F0C20317
:0405480075C76022F1
:100B60009000D9E0FF9000D6E0FE6F601F20021CCD
:100B700074142EF582E43400F583E0F599D20290E6
:0D0B800000D6E004F0C394C04002E4F0226F
:100C22009000D9E02414F582E43400F583EFF090CB
:0D0C320000D9E004F0C394C04002E4F022B9
:100CFD0012011CFF600C120C22740129F9E43AFA5E
:030D0D0080EE2253
:100BB7009000D8E07005F50EF50F22EF250FF50F21
:100BC700E4350EF50ED3E50F9510E50E94004009B8
:090BD700E4F50EF50F9000D8F0D2
:010BE00022F2
:100621000209FFE493A3F8E493A34003F68001F2E7
:1006310008DFF48029E493A3F85407240CC8C333DA
:10064100C4540F4420C8834004F456800146F6DFA9
:10065100E4800B010204081020408090054CE47EE8
:10066100019360BCA3FF543F30E509541FFEE4939E
:10067100A360010ECF54C025E060A840B8E493A365
:10068100FAE493A3F8E493A3C8C582C8CAC583CA90
:10069100F0A3C8C582C8CAC583CADFE9DEE780BE48
:0106140000E5
:10002600E709F608DFFA8046E709F208DFFA803EBC
:1000360088828C83E709F0A3DFFA8032E309F608A9
:10004600DFFA8078E309F208DFFA807088828C8311
:10005600E309F0A3DFFA806489828A83E0A3F608C5
:10006600DFFA805889828A83E0A3F208DFFA804C9F
:1000760080D280FA80C680D4806980F28033801076
:1000860080A680EA809A80A880DA80E280CA8033DF
:1000960089828A83ECFAE493A3C8C582C8CCC58357
:1000A600CCF0A3C8C582C8CCC583CCDFE9DEE78027
:1000B6000D89828A83E493A3F608DFF9ECFAA9F0A6
:1000C600EDFB2289828A83ECFAE0A3C8C582C8CCFC
:1000D600C583CCF0A3C8C582C8CCC583CCDFEADE15
:1000E600E880DB89828A83E493A3F208DFF980CC77
:1000F60088F0EF60010E4E60C388F0ED2402B40470
:100106000050B9F582EB2402B4040050AF23234516
:06011600822390007673C5
:10011C00BB010689828A83E0225002E722BBFE02E1
:09012C00E32289828A83E4932214
:10013500BB010689828A83F0225002F722BBFE01A9
:02014500F322A3
:1001470075F008758200EF2FFFEE33FECD33CDCC6F
:1001570033CCC58233C5829BED9AEC99E5829840F2
:100167000CF582EE9BFEED9AFDEC99FC0FD5F0D6CF
:10017700E4CEFBE4CDFAE4CCF9A88222B800C1B9F9
:100187000059BA002DEC8BF084CFCECDFCE5F0CB37
:10019700F97818EF2FFFEE33FEED33FDEC33FCEB70
:1001A70033FB10D703994004EB99FB0FD8E5E4F92B
:1001B700FA227818EF2FFFEE33FEED33FDEC33FC18
:1001C700C933C910D7059BE99A4007EC9BFCE99A0C
:1001D700F90FD8E0E4C9FAE4CCFB2275F010EF2F51
:1001E700FFEE33FEED33FDCC33CCC833C810D70751
:1001F7009BEC9AE899400AED9BFDEC9AFCE899F88C
:0E0207000FD5F0DAE4CDFBE4CCFAE4C8F9221E
:10021500EB9FF5F0EA9E42F0E99D42F0E89C45F03F
:0102250022B6
:10080A008B218A228923AB24AA25A92612011CFE40
:10081A00AB21AA22A92312011CFF6E702BEF600DD7
:10082A00E52815287002152714452770037F002232
:10083A0074012523F523E43522F52274012526F5D2
:10084A0026E43525F52580BEAB21AA22A92312016B
:10085A001CFDD3EE6480F8ED64809840037F01228A
:0F086A00AB24AA25A92612011CFFC3ED9FFF2274
:100CE800E4FFFE12011C600C0FEF70010E09E970A1
:050CF800F20A80EF226A
:00000001FF
