:0300000002079F55
:0C079F00787FE4F6D8FD7581400207E683
:060593000111000112003D
:0A0E0100EFD3940040031F80F72296
:100DC100AE07EED3940040087FFF120E011E80F2A1
:010DD10022FF
:100CCA00C3EF9511F512601A8F11FF120C7AAF1249
:100CDA0012082BAF12120B98AF12120BF6AF1212A8
:020CEA000158AF
:010CEC0022E5
:100ADF0043BA807594FFE4F59375923FF59175963F
:100AEF00FCF595F5B275B1C075B418F5B375CA0CB0
:100AFF00F5C9120DD212001E120D5D120C50D2AF9D
:100B0F00120665120C23120E12120CCA120E0B8053
:010B1F00EFE6
:10059900608000DA00000000000000000000000098
:1005A9000000000000000000000000000000000042
:1005B9000000000000000000000000000000000032
:1005C9000000000000000000000000000000000022
:1005D9000000000000000000000000000000000012
:1005E9000000000000000000000000000000000002
:1005F90000000000000000000000000000000000F2
:1006090000000000000000000000000000000000E1
:080619000000000041015A003D
:070BC800F0740590FE81F0BE
:100BCF007FFA90015AE0701E90FE82E020E606AE9A
:100BDF00071FEE70F390FE82E054BFF0EF600790B6
:060BEF00015AE04401F090
:010BF50022DD
:07000300AC07E490015AF084
:10000A0090015AE0700A43BA8004120BCB53BA7FAC
:01001A0022C3
:100D280090015AE0701443BA8090FE86EFF090FE6E
:0B0D3800817402F0120BCF53BA7F222F
:100CA40012000A7F5A120D28120CB4E4FF120D2808
:100CB40090015AE0700F43BA8090FE817403F012E1
:060CC4000BCF53BA7F22A2
:100CED00E4FF90015AE060012243BA8090FE8174C6
:0D0CFD0004F0120BCF90FE87E0FF53BA7F8A
:010D0A0022C6
:100D9B0090015AE0700C43BA8090FE82120BC8533C
:030DAB00BA7F22EA
:100D870090015AE0700D43BA8090FE8204120BC89E
:040D970053BA7F22AA
:100DE30043BA8090FE817406F0120BCF53BA7F2270
:100D5D0043BA8043BA3090FE8074E0F090FE82E496
:050D6D00F053BA7F22E3
:100B20008B3D8A3E893F120003EC25E0120CB0AFEA
:100B300005120D28120CB4E540D394004018AB3DCB
:100B4000053FE53FAA3E7002053E14F912011C1252
:0F0B50000CB0154080E1120DE390015AE0FF2236
:1009ED008B3D8A3E893F120003EC25E004120CB0CA
:1009FD00AF05120D28120CB4E540D39401401C1222
:100A0D000CEDAB3D053FE53FAA3E7002053E14F9E6
:100A1D00EF120135120D9B154080DD120CEDAB3D33
:100A2D00AA3EA93FEF120135120D87120DE3900179
:040A3D005AE0FF225A
:100B5F00120CA47F12120D28120CB47F78120D28DC
:100B6F00120CB4120DE3120CA412000A7F5B120DCB
:100B7F0028120CB4120CED8F80120D9B120CED8FFE
:090B8F00A0120D87120DE380FE97
:0E0DF3000000000000000000000000000000F2
:1006210042016500004101670042015B0000420197
:100631005D000042015F0000410161004201620072
:0506410000410164000E
:04001E0075C1262260
:040E0B0043C11022AD
:10070D00E4900168F0A3F0A3F0A3F0A37403F0E468
:10071D00900168F0E4900169F0900169E0FDC394E7
:10072D00045012900168E0FFD2041204AE900169EA
:10073D00E004F080E4900168E004F0E0C39404402C
:10074D00D3D29674FF900165F0A3F0E4FF120A91E5
:10075D0090016A74AAF0E4900168F090016C740342
:10076D00F0900168E02440FF7B017A01796A7540C1
:10077D00017D12120B2090016BEFF06008A3E0FFDA
:10078D0014F0EF70DC900168E004F0E0C3940440D5
:01079D00CA91
:01079E002238
:100BF600900167E0C39410502390015CE02FF090C1
:100C0600015BE03400F0D3A3E094C890015BE0946C
:0C0C16000040091203B1900167E004F0F7
:010C220022AF
:100B980090015EE02FF090015DE03400F090016577
:100BA800E0FEA3E0FFF47002EEF46013D390015E60
:0F0BB800E09F90015DE09E4006E4F0A3F0B2964E
:010BC700220B
:10082B00E4F521F522900160E02FF090015FE034B8
:10083B0000F0D3A3E0946490015FE094004054E493
:10084B00F0A3F0A3E02440FF7B007A0079217540F0
:10085B00017D101209EDEF6003E4F5216321FFE444
:10086B00F522900161E0FFAE22E521A80608800287
:10087B00C313D8FC24FF9204AD221204AE0522E56B
:10088B0022C3940440DC900161E004F0C394044063
:03089B0002E4F084
:01089E002237
:10015800900163E02FF0900162E03400F0D3A3E057
:0D01680094F4900162E094015003020284BF
:10017500E4F521F522F526F525F524F523F0A3F080
:02018500F52162
:10018700E4F52778287C00FD7BFF7A0D79F3FE7F65
:100197000E1200F6E5212440FF7B007A00792875CE
:1001A70040107D301209ED8F27E5277034F522E5E1
:1001B7002225E025E0FD2429F8E6FE74282DF8E63F
:1001C700FDEDFFE4FCFDE5262FF526E5253EF525AB
:1001D700ED3524F524EC3523F5230522E522B40477
:0101E700CE49
:1001E8000521E521C394044096E47FC07E5DFDFCB3
:1001F800AB26AA25A924A823D3120147401312022B
:10020800859001677410F0900165E4F0A37464F0C0
:100218002274FF7F77FEFDFCAB26AA25A924A8231C
:10022800D31201474015E4FF120A91900167741038
:10023800F0900165E4F0A374FAF022E47F317E01C6
:10024800FDFCAB26AA25A924A823D31201474016F2
:10025800E4FF120A919001677410F090016574022E
:10026800F0A374EEF022900167E0C39410400D12E1
:0C02780003B174FF900165F0A3F0D29672
:010284002257
:10028500E490016DF0A3F0A3F0F536F537F538905D
:10029500016E7403F090016EE0C364809480500396
:0302A5000203B0A1
:1002A800E4F539753A0390016EE02440FF7B007A4B
:1002B8000079367540017D101209ED8F39E53960F6
:1002C80007AF3A153AEF70DEE53960030203A790ED
:1002D800016F7403F090016FE0FFC3648094805055
:1002E800030203A7E536A807088002C313D8FC2039
:1002F800E00302039E90016FE0FF74017E00A807EF
:10030800088005C333CE33CED8F9C4F8540FC86873
:10031800FF8F38753A0390016EE02440FF7B007A26
:100328000079387540017D19120B208F39E5396045
:1003380007AF3A153AEF70DE753A0390016EE02484
:1003480040FF7B007A0079377540017D141209ED72
:100358008F39E5396007AF3A153AEF70DE90016FD3
:10036800E0FF7411A807088002C333D8FCF45237A1
:10037800753A0390016EE02440FF7B007A007937DC
:100388007540017D14120B208F39E539601AAF3A98
:0F039800153AEF70DE2290016FE014F00202DDE3
:0903A70090016EE014F002029ACC
:0103B000222A
:1003B100E490016DF0A3F0A3F0F536F53790016EEE
:0F03C100F090016EE0C36480948440030204ADA9
:1003D000E4F53875390390016EE02440FF7B007A24
:1003E0000079367540017D141209ED8F38E53860CB
:1003F00007AF391539EF70DEE53860030204A490C9
:10040000016FF090016FE0FFC364809484400302A9
:1004100004A4E536A807088002C313D8FC20E07BBB
:1004200090016FE0FF74017E00A807088005C333C8
:10043000CE33CED8F9C4F8540FC868FF8F3775395A
:100440000390016EE02440FF7B007A00793775400D
:10045000017D19120B208F38E5386007AF39153947
:10046000EF70DE90016FE0FF7411A807088002C3EF
:1004700033D8FC423675390390016EE02440FF7B8F
:10048000007A0079367540017D14120B208F38E513
:1004900038601AAF391539EF70DE2290016FE00431
:0404A000F00204035F
:0904A40090016EE004F00203C2B5
:0104AD00222C
:020A91008F369E
:100A9300E490016DF0A3F0A37403F0900164E065AA
:100AA300366038E536F0E490016DF090016DE02496
:100AB30040FF7B007A0079367540017D14120B20CC
:100AC30090016EEFF06008A3E0FF14F0EF70DC908C
:0B0AD300016DE004F0E0C3940440D08B
:010ADE0022F5
:1004AE007EFFEFC39404500DEDC394045007EF2567
:1004BE00E025E02DFEEEB4180040030205929004F4
:1004CE00D3F828287302051B020520020525020514
:1004DE002A02052F02053402053902053E020543A4
:1004EE0002054802054D02055202055702055C023F
:1004FE00056102056602056B0205700205750205AF
:10050E007A02057F02058402058902058EA20492F5
:10051E00A222A20492A322A20492A422A20492A531
:10052E0022A20492A622A20492A722A204928022C0
:10053E00A204928122A204928222A20492C322A237
:10054E0004928322A204928422A204928522A204FF
:10055E00928622A204928722A204929022A2049250
:10056E00CA22A20492CB22A204929122A2049292B7
:10057E0022A204929322A204929422A20492C42252
:04058E00A20492959C
:010592002246
:030646000113009D
:100DD200538EBFE4F589758B30758DF8D28ED2AB08
:010DE20022EE
:03001B00020E0FC3
:030E0F0005133296
:030E1200AF1322F9
:06097F008F088D098B0AB0
:10098500E4F50B750C03E5082440FF7B007A00793C
:100995000B7540017D141209EDEF6007AE0C150CC7
:1009A500EE70E3EF7041E50A6011AE097411A80617
:1009B500088002C333D8FCF50A8003E4F50AE50A8A
:1009C500F4520BE50A420B750C03E5082440FF7B46
:1009D500007A00790B7540017D14120B20EF60073A
:0709E500AE0C150CEE70E3EF
:0109EC0022E8
:100A4100706F655F6C65640A0053775F5665723A33
:100A510056322E300A0048775F5665723A56322E6A
:100A6100300A004A756E20303720323031380A00A2
:100A710031313A32323A35330A007772697465207E
:100A8100313D007265616420313D007665720A0076
:100649004200D400000110644100D6004100D900E5
:0B0659004100D800010D00020E00005F
:100D4300AD07AC06538EEF538EF7438E048CD6AFAC
:0A0D5300058FD753AFFB438E10222B
:100C5000438E017FCC7EFF120D43E598543F444004
:100C6000F598D2BCD2ACD29C53A23F439710C2029B
:0A0C7000E49000D6F09000D9F022C5
:0300230002089F31
:0F089F00C0E0C083C082C0D075D000C006C007C3
:0808AE00AFBA53BA7F30984441
:1008B600C29885990D20033CE50D640D60369000C5
:1008C600D8E0FE04F074002EF582E43400F583E5EA
:1008D6000DF0640A60079000D8E0B413D0D20390FC
:1008E60000D8E02400F582E43400F583E4F09000BB
:0208F600D8F038
:0B08F80080B9309904C299C2028FBA87
:0D090300D007D006D0D0D082D083D0E03213
:1006650020030302070C7BFF7A0A798C120D728E28
:10067500278F287524FF75250A75268C7B017A003E
:100685007900120910EF70339000D8F0C2037BFF98
:100695007A0A7941120DAE7BFF7A0A794A120DAEBC
:1006A5007BFF7A0A7957120DAE7BFF7A0A796412BD
:1006B5000DAE7BFF7A0A7971020DAE7BFF7A0A795E
:1006C5007B120D728E278F287524FF75250A7526D6
:1006D5007B7B017A007900120910EF700280227B82
:1006E500FF7A0A7984120D728E278F287524FF757B
:1006F500250A7526847B017A007900120910EF70AE
:08070500069000D8F0C20322A7
:100C23009000D9E0FF9000D6E0FE6F601F20021C09
:100C330074142EF582E43400F583E0F599D2029022
:0D0C430000D6E004F0C394C04002E4F022AB
:100D0B009000D9E02414F582E43400F583EFF090E1
:0D0D1B0000D9E004F0C394C04002E4F022CF
:100DAE0012011CFF600C120D0B740129F9E43AFAC2
:030DBE0080EE22A2
:100C7A009000D8E07005F50EF50F22EF250FF50F5D
:100C8A00E4350EF50ED3E50F9510E50E94004009F4
:090C9A00E4F50EF50F9000D8F00E
:010CA300222E
:1007AB00020ADFE493A3F8E493A34003F68001F27B
:1007BB0008DFF48029E493A3F85407240CC8C3334F
:1007CB00C4540F4420C8834004F456800146F6DF1E
:1007DB00E4800B0102040810204080900593E47E16
:1007EB00019360BCA3FF543F30E509541FFEE49313
:1007FB00A360010ECF54C025E060A840B8E493A3DA
:10080B00FAE493A3F8E493A3C8C582C8CAC583CA04
:10081B00F0A3C8C582C8CAC583CADFE9DEE780BEBC
:010664000095
:10002600E709F608DFFA8046E709F208DFFA803EBC
:1000360088828C83E709F0A3DFFA8032E309F608A9
:10004600DFFA8078E309F208DFFA807088828C8311
:10005600E309F0A3DFFA806489828A83E0A3F608C5
:10006600DFFA805889828A83E0A3F208DFFA804C9F
:1000760080D280FA80C680D4806980F28033801076
:1000860080A680EA809A80A880DA80E280CA8033DF
:1000960089828A83ECFAE493A3C8C582C8CCC58357
:1000A600CCF0A3C8C582C8CCC583CCDFE9DEE78027
:1000B6000D89828A83E493A3F608DFF9ECFAA9F0A6
:1000C600EDFB2289828A83ECFAE0A3C8C582C8CCFC
:1000D600C583CCF0A3C8C582C8CCC583CCDFEADE15
:1000E600E880DB89828A83E493A3F208DFF980CC77
:1000F60088F0EF60010E4E60C388F0ED2402B40470
:100106000050B9F582EB2402B4040050AF23234516
:06011600822390007673C5
:10011C00BB010689828A83E0225002E722BBFE02E1
:09012C00E32289828A83E4932214
:10013500BB010689828A83F0225002F722BBFE01A9
:02014500F322A3
:10014700EB9FF5F0EA9E42F0E99D42F0E89C45F00E
:010157002285
:100910008B218A228923AB24AA25A92612011CFE39
:10092000AB21AA22A92312011CFF6E702BEF600DD0
:10093000E52815287002152714452770037F00222B
:1009400074012523F523E43522F52274012526F5CB
:1009500026E43525F52580BEAB21AA22A923120164
:100960001CFDD3EE6480F8ED64809840037F012283
:0F097000AB24AA25A92612011CFFC3ED9FFF226D
:100D7200E4FFFE12011C600C0FEF70010E09E97016
:050D8200F20A80EF22DF
:00000001FF
