:030000000204F601
:0C04F600787FE4F6D8FD75813F02053DDB
:06042C00011000011100A7
:100ADD00C3EF9510F51160158F10FF120A90AF112D
:0D0AED00120680AF11120A09AF1112015854
:010AFA0022D9
:10094A007594FFE4F59375923FF5917596FCF595CC
:10095A00F5B275B1C075B418F5B375CA0CF5C912FC
:10096A000BD212001E120B18120A66120897D2AF87
:10097A00120358120A39120C35120ADD120C2E8093
:01098A00EF7D
:10043200608000DA00000000000000000000000000
:1004420000000000000000000000000000000000AA
:10045200000000000000000000000000000000009A
:10046200000000000000000000000000000000008A
:10047200000000000000000000000000000000007A
:10048200000000000000000000000000000000006A
:10049200000000000000000000000000000000005A
:1004A200000000000000000000000000000000004A
:0704B2000000000001120030
:0A0ABA0090FE82F0740590FE81F0BA
:100AC4007FFF90FE82E020E602DFF790FE82E05492
:080AD400BFF0EF7003431201B3
:010ADC0022F7
:0C0C010043BA807401120AC053BA7F226B
:100B950043BA8090FE86EFF090FE817402F0120A4F
:050BA500C453BA7F22D9
:060B7F0025E0FF120B95BA
:100B850043BA8090FE817403F0120AC453BA7F22DF
:100B6800E4FF43BA8090FE817404F0120AC490FE38
:060B780087E0FF53BA7F85
:010B7E002254
:0B0C190043BA80E4120ABA53BA7F22EB
:0C0C0D0043BA807401120ABA53BA7F2265
:100BE30043BA8090FE817406F0120AC453BA7F227E
:100B180043BA8090FE13E0440CF043BA3090FE8054
:0C0B280074E0F090FE82E4F053BA7F22EB
:10098B008B388A39893AAE05AD07E4F512120C01A2
:10099B00ED120B7FAF06120B95120B85E53BD39433
:1009AB00004018AB38053AE53AAA397002053914FC
:1009BB00F912011C120B81153B80E1120BE3AF12F4
:0109CB002209
:10083A008B3C8A3D893EAE07E4F512120C01EE129A
:10084A000B7FAF05120B95120B85120C01EE25E0FA
:10085A0004120B81E53FD39401401C120B68AB3C98
:10086A00053EE53EAA3D7002053D14F9EF12013539
:10087A00120C19153F80DD120B68AB3CAA3DA93E4C
:0D088A00EF120135120C0D120BE3AF12221C
:0E0BF3000000000000000000000000000000F4
:1004B90042016B00000408272B2D2E420164000025
:0E04C900420166000041016800420169000026
:0A0C2400EFD3940040031F80F72275
:100B3400AD07AC06D3ED9400EC9400400C7FFF129B
:0A0B44000C24ED1D70EE1C80EB2266
:04001E0075C1262260
:040C2E0043C110228C
:10089700E490015AF0C204120003C2967FFF7E4F14
:1008A700120B34D204120003D29674FF90016BF03E
:1008B700A3F07DAA7F121207D67DFF7F141207D6F9
:1008C7007D0F7F191207D6E490015AF090015AE084
:1008D700FFC394045015EF75F005A42446FF7D016E
:0B08E7001207D690015AE004F080E1F7
:0108F20022E3
:100A0900900165E02FF0900164E03400F090016BF3
:100A1900E0FEA3E0FFF47002EEF46013D3900165E9
:0F0A2900E09F900164E09E4006E4F0A3F0B296D7
:010A3800229B
:10068000E4F521F522FEEFFD900167E02DF09001E9
:1006900066E03400F0D3A3E09464900166E0940037
:1006A0004053E4F0A3F0A3E0FF7B007A0079217DC2
:1006B000101209CCEF6003E4F521E4F522AF22E546
:1006C00021A807088002C313D8FC90016830E00617
:1006D000E0FFC2058004E0FFD205AD2212027005E2
:1006E00022E522C3940440D5900168E004F0C3944D
:0506F000044002E4F0EB
:0106F50022E2
:10015800E490015AF090016AE02FF0900169E034D0
:1001680000F0D3A3E094F4900169E09401500302F5
:02017800026F14
:10017A00E4F521F522F526F525F524F523F0A3F07B
:02018A00F5215D
:10018C0078277C007D007BFF7A0B79F37E007F0E55
:10019C001200F674082521F8E6FF7B007A00792717
:1001AC00753F107D3012083A90015AEFF07034F51B
:1001BC0022E52225E025E0FD2428F8E6FE74272D13
:1001CC00F8E6FDEDFFE4FCFDE5262FF526E5253EE2
:1001DC00F525ED3524F524EC3523F5230522E52210
:0301EC00B404CE8A
:1001EF000521E521C394044094E47F407E1FFDFC6C
:1001FF00AB26AA25A924A823D3120147400C9001AE
:10020F006BE4F0A37428F00205827FD67EFE7DFF9B
:10021F007CFFAB26AA25A924A823D3120147400AA5
:10022F0090016BE4F0A37496F02274FF7F23FEFD20
:10023F00FCAB26AA25A924A823D3120147400E9070
:10024F00016B7401F0A374F4F07DFF800B74FF90C9
:10025F00016BF0A3F0D296FD7F141207D61206039E
:01026F00226C
:10058200E490015BF0A3F0A3F0A3F0A3F090015C70
:100592007403F090015CE0FFC3940040637B017A36
:1005A20001795F7D101209CC90015BEFF0704990E8
:1005B200015D7403F090015DE0FFC3940040399047
:1005C200015FE0FEA807088002C313D8FC30E020D8
:1005D20090015EE0FF90015DE0FE7410A8060880C5
:1005E20002C333D8FC4F90015EF0FD7F190207D69B
:1005F20090015DE014F080BD90015CE014F0809306
:0106020022D5
:10060300E490015BF0A3F0A3F0A3F0A3F090015CEE
:10061300F090015CE0FFC3940450617B017A01799F
:100623005F7D101209CC90015BEFF0704790015D84
:10063300F090015DE0FFC39404503990015FE0FE48
:10064300A807088002C313D8FC20E02090015EE0D5
:10065300FF90015DE0FE7401A806088002C333D851
:10066300FC4F90015EF0FD7F190207D690015DE01B
:0C06730004F080BD90015CE004F0809574
:01067F002258
:100270007EFFEFC39406500DEDC394045007EF25A5
:10028000E025E02DFE74082EFEB4180040030203A2
:1002900057900298F82828730202E00202E5020251
:1002A000EA0202EF0202F40202F90202FE02030372
:1002B00002030802030D02031202031702031C02C9
:1002C000032102032602032B02033002033502033B
:1002D0003A02033F02034402034902034E0203535E
:1002E000A20592A222A20592A322A20592A422A272
:1002F0000592A522A20592A622A20592A722A205F6
:10030000928022A205928122A205928222A20592C7
:10031000C322A205928322A205928422A20592857D
:1003200022A205928622A205928722A205929022FD
:10033000A20592CA22A20592CB22A205929122A2E4
:1003400005929222A205929322A205929422A205DE
:0703500092C422A205929560
:010357002283
:10000300E4FCE4FBAF04AD03A20492051202700BFF
:07001300BB04F10CBC04EB7F
:01001A0022C3
:0304D7000113000E
:100BD200538EBFE4F589758B30758DF8D28ED2AB0A
:010BE20022F0
:03001B00020C32A2
:030C320005133275
:030C3500AF1322D8
:0207D6008F355D
:1007D800E4900160F0A3EDF0A37403F0E4A3F090BB
:1007E8000160F09001627403F0A3E025E0F090014D
:1007F80063E0FEC006900160E02408F8E6FF7B0194
:100808007A017961753B01AD3512098BD0E04F90C3
:100818000163F030E00A900162E0FF14F0EF70CE5F
:10082800900160E004F0E0C3940440B7900163E0F5
:01083800FFC0
:01083900229C
:0A09CC008F358D368B378A38893954
:1009D600E4900160F0A37403F074082535F8E6FF8F
:1009E600AB37AA38A939753F01AD3612083A9001DE
:1009F60060EFF06008A3E0FF14F0EF70DC90016098
:020A0600E0FF0F
:010A080022CB
:1008F300706F655F6C65640A0053775F5665723A83
:1009030056322E300A0048775F5665723A56322EB9
:10091300300A004A756E20313820323031380A00EF
:1009230031363A30393A33320A00777269746520C6
:10093300313D007265616420313D007665720A00C5
:07094300236C6F61640A00E0
:1004DA004200D40000010F644100D6004100D90057
:0B04EA004100D800010C00020D0000D2
:100B4E00AD07AC06538EEF538EF7438E048CD6AFA3
:0A0B5E00058FD753AFFB438E102222
:100A6600438E017FCC7EFF120B4EE598543F4440E7
:100A7600F598D2BCD2ACD29C53A23F439710C20287
:0A0A8600E49000D6F09000D9F022B1
:030023000206F6DC
:0F06F600C0E0C083C082C0D075D000C006C0076E
:08070500AFBA53BA7F309844EB
:10070D00C29885990C20033CE50C640D6036900071
:10071D00D8E0FE04F074002EF582E43400F583E594
:10072D000CF0640A60079000D8E0B413D0D20390A7
:10073D0000D8E02400F582E43400F583E4F0900065
:02074D00D8F0E2
:0B074F0080B9309904C299C2028FBA31
:0D075A00D007D006D0D0D082D083D0E032BE
:1003580020030302042B7BFF7A09793E120BAA8E35
:10036800278F287524FF75250975263E7B017A009D
:100378007900120767EF70339000D8F0C2037BFF53
:100388007A0879F3120BBF7BFF7A0879FC120BBF4E
:100398007BFF7A097909120BBF7BFF7A097916125C
:1003A8000BBF7BFF7A097923020BBF7BFF7A0979A0
:1003B8002D120BAA8E278F287524FF7525097526FF
:1003C8002D7B017A007900120767EF700280227B8B
:1003D800FF7A097936120BAA8E278F287524FF75A4
:1003E80025097526367B017A007900120767EF70B8
:1003F800079000D8F0C203227BFF7A097943120BD9
:10040800AA8E278F287524FF7525097526437B0139
:100418007A007900120767EF70099000D8F0C203DC
:0404280075C7602212
:100A39009000D9E0FF9000D6E0FE6F601F20021CF5
:100A490074142EF582E43400F583E0F599D202900E
:0D0A590000D6E004F0C394C04002E4F02297
:100AFB009000D9E02414F582E43400F583EFF090F4
:0D0B0B0000D9E004F0C394C04002E4F022E1
:100BBF0012011CFF600C120AFB740129F9E43AFAC6
:030BCF0080EE2293
:100A90009000D8E07005F50DF50E22EF250EF50E4D
:100AA000E4350DF50DD3E50E950FE50D94004009E5
:090AB000E4F50DF50E9000D8F0FC
:010AB900221A
:1005020002094AE493A3F8E493A34003F68001F2BC
:1005120008DFF48029E493A3F85407240CC8C333FA
:10052200C4540F4420C8834004F456800146F6DFC9
:10053200E4800B010204081020408090042CE47E29
:10054200019360BCA3FF543F30E509541FFEE493BE
:10055200A360010ECF54C025E060A840B8E493A385
:10056200FAE493A3F8E493A3C8C582C8CAC583CAB0
:10057200F0A3C8C582C8CAC583CADFE9DEE780BE68
:0104F5000006
:10002600E709F608DFFA8046E709F208DFFA803EBC
:1000360088828C83E709F0A3DFFA8032E309F608A9
:10004600DFFA8078E309F208DFFA807088828C8311
:10005600E309F0A3DFFA806489828A83E0A3F608C5
:10006600DFFA805889828A83E0A3F208DFFA804C9F
:1000760080D280FA80C680D4806980F28033801076
:1000860080A680EA809A80A880DA80E280CA8033DF
:1000960089828A83ECFAE493A3C8C582C8CCC58357
:1000A600CCF0A3C8C582C8CCC583CCDFE9DEE78027
:1000B6000D89828A83E493A3F608DFF9ECFAA9F0A6
:1000C600EDFB2289828A83ECFAE0A3C8C582C8CCFC
:1000D600C583CCF0A3C8C582C8CCC583CCDFEADE15
:1000E600E880DB89828A83E493A3F208DFF980CC77
:1000F60088F0EF60010E4E60C388F0ED2402B40470
:100106000050B9F582EB2402B4040050AF23234516
:06011600822390007673C5
:10011C00BB010689828A83E0225002E722BBFE02E1
:09012C00E32289828A83E4932214
:10013500BB010689828A83F0225002F722BBFE01A9
:02014500F322A3
:10014700EB9FF5F0EA9E42F0E99D42F0E89C45F00E
:010157002285
:100767008B218A228923AB24AA25A92612011CFEE4
:10077700AB21AA22A92312011CFF6E702BEF600D7B
:10078700E52815287002152714452770037F0022D6
:1007970074012523F523E43522F52274012526F576
:1007A70026E43525F52580BEAB21AA22A92312010F
:1007B7001CFDD3EE6480F8ED64809840037F01222E
:0F07C700AB24AA25A92612011CFFC3ED9FFF2218
:100BAA00E4FFFE12011C600C0FEF70010E09E970E0
:050BBA00F20A80EF22A9
:00000001FF
