:030000000207E80C
:0C07E800787FE4F6D8FD75814002082FF0
:0605A90001100001110029
:0A0D7300EFD3940040031F80F72225
:100D1000AE07EED3940040087FFF120D731E80F2E1
:010D200022B0
:100C5D00C3EF9510F511601A8F10FF120BE5AF1150
:100C6D00120874AF11120B31AF11120B61AF1112CB
:020C7D00028CE7
:010C7F002252
:100AC1007594FFE4F59375923FF5917596FCF59554
:100AD100F5B275B1C075B418F5B375CA0CF5C91284
:100AE1000D2112001E120C9D120BBBD2AF120680FB
:0E0AF100120B8E120D84120C5D120D7D80EF23
:1005AF00608000DA00000000000000000000000082
:1005BF00000000000000000000000000000000002C
:1005CF00000000000000000000000000000000001C
:1005DF00000000000000000000000000000000000C
:1005EF0000000000000000000000000000000000FC
:1005FF0000000000000000000000000000000000EC
:10060F0000000000000000000000000000000000DB
:10061F0000000000000000000000000000000000CB
:07062F0000000000011200B1
:0A0C0F0090FE82F0740590FE81F063
:100C19007FFF90FE82E020E606AE071FEE70F3909C
:0C0C2900FE82E054BFF0EF6003431201B4
:010C3500229C
:0C0D500043BA807401120C1553BA7F22C4
:100CD30043BA8090FE86EFF090FE817402F0120C0E
:050CE3001953BA7F2245
:100C3600AC07E4F512120D50EC25E0FF120CD312AE
:070C46000C4DAF05120CD3A9
:100C4D0043BA8090FE817403F0120C1953BA7F22BF
:10000300E4FF43BA8090FE817404F0120C1990FE51
:0600130087E0FF53BA7FF5
:0100190022C4
:0B0D680043BA80E4120C0F53BA7F2244
:0C0D5C0043BA807401120C0F53BA7F22BE
:100D320043BA8090FE817406F0120C1953BA7F22D6
:100C9D0043BA8090FE13E0440CF043BA3090FE80CE
:0C0CAD0074E0F090FE82E4F053BA7F2265
:100AFF008B3D8A3E893F120C36E540D39400401C53
:100B0F00AB3D053FE53FAA3E7002053E14F91202C8
:100B1F0050FF120CD3120C4D154080DD120D32AF69
:020B2F00122290
:100A21008B3D8A3E893F120C36120D50EC25E004B5
:100A3100FF120CD3120C4DE540D39401401C12005F
:100A410003AB3D053FE53FAA3E7002053E14F9EFB9
:100A5100120269120D68154080DD120003AB3DAA38
:100A61003EA93FEF120269120D5C120D32AF122244
:0E0D42000000000000000000000000000000A3
:1006360042016400000408272B2D2E41016600426A
:10064600015A000042015C000042015E00004101C7
:0B0656006000420161000041016300F0
:04001E0075C1262260
:040D7D0043C110223C
:10075400E4900167F0A3F0A3F0A3F0A37403F0E422
:10076400900167F0E4900168F0900168E0FDC394A3
:10077400045012900167E0FFD2041204C190016892
:10078400E004F080E4900167E004F0E0C3940440E6
:10079400D3D29674FF900164F0A3F0E4FF120A71BF
:1007A40090016974AAF0E4900167F090016B7403FE
:1007B400F0900167E02408F8E6FF7B017A0179698B
:1007C4007540017D12120AFF90016AEFF06008A3E0
:1007D400E0FF14F0EF70DA900167E004F0E0C394F6
:0307E4000440C806
:0107E70022EF
:100B6100900166E0C39410502390015BE02FF09058
:100B7100015AE03400F0D3A3E094C890015AE09404
:0C0B81000040091203BB900166E004F084
:010B8D002245
:100B310090015DE02FF090015CE03400F0900164E1
:100B4100E0FEA3E0FFF47002EEF46013D390015DC8
:0F0B5100E09F90015CE09E4006E4F0A3F0B296B6
:010B60002272
:10087400E4F521F52290015FE02FF090015EE03471
:1008840000F0D3A3E0946490015EE094004056E449
:10089400F0A3F0A3E02408F8E6FF7B007A007921B6
:1008A4007540017D10120A21EF6003E4F5216321F4
:1008B400FFE4F522900160E0FFAE22E521A80608DE
:1008C4008002C313D8FC24FF9204AD221204C10594
:1008D40022E522C3940440DC900160E004F0C39458
:0508E400044002E4F0F5
:0108E90022EC
:10028C00900162E02FF0900161E03400F0D3A3E024
:0D029C0094F4900161E0940150030203BA54
:1002A900E4F521F522F526F525F524F523F0A3F04B
:0202B900F5212D
:1002BB00E4F52778287C00FD7BFF7A0D7942FE7FE1
:1002CB000E12022A74082521F8E6FF7B007A0079CA
:1002DB00287540107D30120A218F27E5277034F5E1
:1002EB0022E52225E025E0FD2429F8E6FE74282DE1
:1002FB00F8E6FDEDFFE4FCFDE5262FF526E5253EB2
:10030B00F525ED3524F524EC3523F5230522E522DF
:03031B00B404CE59
:10031E000521E521C394044094E47FC07E5DFDFC7D
:10032E00AB26AA25A924A823D312027B40131200C0
:10033E00269001667410F0900164E4F0A37464F0EA
:10034E002274FF7F77FEFDFCAB26AA25A924A823E5
:10035E00D312027B4015E4FF120A719001667410ED
:10036E00F0900164E4F0A374FAF022E47F317E0190
:10037E00FDFCAB26AA25A924A823D312027B401686
:10038E00E4FF120A719001667410F0900164740219
:10039E00F0A374EEF022900166E0C39410400D12AB
:0C03AE0003BB74FF900164F0A3F0D29632
:0103BA002220
:10002600E490016CF0A3F0A3F0F536F537F53890BF
:10003600016D7403F090016DE0C3648094805003F9
:030046000201595B
:10004900E4F539753A0390016DE02408F8E6FF7B81
:10005900007A0079367540017D10120A218F39E541
:10006900396007AF3A153AEF70DCE53960030201F0
:100079005090016E7403F090016EE0FFC3648094A8
:10008900805003020150E536A807088002C313D83F
:10009900FC20E00302014790016EE0FF74017E003D
:1000A900A807088005C333CE33CED8F9C4F8540F56
:1000B900C868FF8F38753A0390016DE02408F8E6A7
:1000C900FF7B007A0079387540017D19120AFF8F8C
:1000D90039E5396007AF3A153AEF70DC753A0390A4
:1000E900016DE02408F8E6FF7B007A007937754056
:1000F900017D14120A218F39E5396007AF3A153AA3
:10010900EF70DC90016EE0FF7411A807088002C34C
:1001190033D8FCF45237753A0390016DE02408F89E
:10012900E6FF7B007A0079377540017D14120AFFDA
:100139008F39E539601AAF3A153AEF70DC22900130
:070149006EE014F0020080DB
:0901500090016DE014F002003B87
:010159002283
:1003BB00E490016CF0A3F0A3F0F536F53790016DE6
:0F03CB00F090016DE0C36480948440030204C08D
:1003DA00E4F53875390390016DE02408F8E6FF7BEF
:1003EA00007A0079367540017D14120A218F38E5AA
:1003FA00386007AF391539EF70DCE538600302045D
:10040A00B790016EF090016EE0FFC364809484405F
:10041A00030204B7E536A807088002C313D8FC30E4
:10042A00E0030204AE90016EE0FF74017E00A807AB
:10043A00088005C333CE33CED8F9C4F8540FC86840
:10044A00FF8F3775390390016DE02408F8E6FF7BCA
:10045A00007A0079377540017D19120AFF8F38E555
:10046A00386007AF391539EF70DC90016EE0FF7420
:10047A0011A807088002C333D8FC423675390390A5
:10048A00016DE02408F8E6FF7B007A0079367540B2
:10049A00017D14120AFF8F38E538601AAF39153911
:0D04AA00EF70DC2290016EE004F002040F00
:0904B70090016DE004F00203CC99
:0104C0002219
:020A71008F36BE
:100A7300E490016CF0A3F0A37403F0900163E065CC
:100A830036603AE536F0E490016CF090016CE024B6
:100A930008F8E6FF7B007A0079367540017D141271
:100AA3000AFF90016DEFF06008A3E0FF14F0EF7010
:0D0AB300DA90016CE004F0E0C3940440CE42
:010AC0002213
:1004C1007EFFEFC39404500DEDC394045007EF2554
:1004D100E025E02DFE74072EFEB41800400302054E
:1004E100A89004E9F82828730205310205360205AF
:1004F1003B02054002054502054A02054F0205542B
:1005010002055902055E02056302056802056D02D6
:10051100057202057702057C020581020586020546
:100521008B02059002059502059A02059F0205A41A
:10053100A20492A222A20492A322A20492A422A221
:100541000492A522A20492A622A20492A722A204A6
:10055100928022A204928122A204928222A2049277
:10056100C322A204928322A204928422A20492852D
:1005710022A204928622A204928722A204929022AD
:10058100A20492CA22A20492CB22A204929122A294
:1005910004929222A204929322A204929422A2048F
:0705A10092C422A20492950E
:0105A8002230
:0306610001130082
:100D2100538EBFE4F589758B30758DF8D28ED2ABB9
:010D3100229F
:03001B00020D8152
:030D810005133225
:030D8400AF132288
:1009CA00706F655F6C65640A0053775F5665723AAB
:1009DA0056322E300A0048775F5665723A56322EE2
:1009EA00300A004A756E20303920323031380A0018
:1009FA0032313A31353A31350A00777269746520F5
:100A0A00313D007265616420313D007665720A00ED
:070A1A00236C6F61640A0008
:100664004200D40000010F644100D6004100D900CB
:0B0674004100D800010C00020D000046
:100CB900AD07AC06538EEF538EF7438E048CD6AF37
:0A0CC900058FD753AFFB438E1022B6
:100BBB00438E017FCC7EFF120CB9E598543F444025
:100BCB00F598D2BCD2ACD29C53A23F439710C20231
:0A0BDB00E49000D6F09000D9F0225B
:030023000208EAE6
:0F08EA00C0E0C083C082C0D075D000C006C00778
:0808F900AFBA53BA7F309844F6
:10090100C29885990C20033CE50C640D603690007B
:10091100D8E0FE04F074002EF582E43400F583E59E
:100921000CF0640A60079000D8E0B413D0D20390B1
:1009310000D8E02400F582E43400F583E4F090006F
:02094100D8F0EC
:0B09430080B9309904C299C2028FBA3B
:0D094E00D007D006D0D0D082D083D0E032C8
:100680002003030207537BFF7A0A7915120CE88EC8
:10069000278F287524FF75250A7526157B017A009A
:1006A000790012095BEF70339000D8F0C2037BFF32
:1006B0007A0979CA120CFD7BFF7A0979D3120CFDF5
:1006C0007BFF7A0979E0120CFD7BFF7A0979ED1244
:1006D0000CFD7BFF7A0979FA020CFD7BFF7A0A791F
:1006E00004120CE88E278F287524FF75250A7526BD
:1006F000047B017A00790012095BEF700280227B93
:10070000FF7A0A790D120CE88E278F287524FF7561
:10071000250A75260D7B017A00790012095BEF70BE
:10072000079000D8F0C203227BFF7A0A791A120CD4
:10073000E88E278F287524FF75250A75261A7B01F8
:100740007A00790012095BEF70099000D8F0C203BB
:0407500075C76022E7
:100B8E009000D9E0FF9000D6E0FE6F601F20021C9F
:100B9E0074142EF582E43400F583E0F599D20290B8
:0D0BAE0000D6E004F0C394C04002E4F02241
:100C80009000D9E02414F582E43400F583EFF0906D
:0D0C900000D9E004F0C394C04002E4F0225B
:100CFD00120250FF600C120C80740129F9E43AFACB
:030D0D0080EE2253
:100BE5009000D8E07005F50DF50E22EF250EF50EF7
:100BF500E4350DF50DD3E50E950FE50D940040098F
:090C0500E4F50DF50E9000D8F0A5
:010C0E0022C3
:1007F400020AC1E493A3F8E493A34003F68001F250
:1008040008DFF48029E493A3F85407240CC8C33305
:10081400C4540F4420C8834004F456800146F6DFD4
:10082400E4800B01020408102040809005A9E47EB6
:10083400019360BCA3FF543F30E509541FFEE493C9
:10084400A360010ECF54C025E060A840B8E493A390
:10085400FAE493A3F8E493A3C8C582C8CAC583CABB
:10086400F0A3C8C582C8CAC583CADFE9DEE780BE73
:01067F00007A
:10015A00E709F608DFFA8046E709F208DFFA803E87
:10016A0088828C83E709F0A3DFFA8032E309F60874
:10017A00DFFA8078E309F208DFFA807088828C83DC
:10018A00E309F0A3DFFA806489828A83E0A3F60890
:10019A00DFFA805889828A83E0A3F208DFFA804C6A
:1001AA0080D280FA80C680D4806980F28033801041
:1001BA0080A680EA809A80A880DA80E280CA8033AA
:1001CA0089828A83ECFAE493A3C8C582C8CCC58322
:1001DA00CCF0A3C8C582C8CCC583CCDFE9DEE780F2
:1001EA000D89828A83E493A3F608DFF9ECFAA9F071
:1001FA00EDFB2289828A83ECFAE0A3C8C582C8CCC7
:10020A00C583CCF0A3C8C582C8CCC583CCDFEADEDF
:10021A00E880DB89828A83E493A3F208DFF980CC41
:10022A0088F0EF60010E4E60C388F0ED2402B4043A
:10023A000050B9F582EB2402B4040050AF232345E1
:06024A0082239001AA735B
:10025000BB010689828A83E0225002E722BBFE02AC
:09026000E32289828A83E49322DF
:10026900BB010689828A83F0225002F722BBFE0174
:02027900F3226E
:10027B00EB9FF5F0EA9E42F0E99D42F0E89C45F0D9
:01028B002250
:10095B008B218A228923AB24AA25A926120250FEB9
:10096B00AB21AA22A923120250FF6E702BEF600D50
:10097B00E52815287002152714452770037F0022E0
:10098B0074012523F523E43522F52274012526F580
:10099B0026E43525F52580BEAB21AA22A923120218
:1009AB0050FDD3EE6480F8ED64809840037F012204
:0F09BB00AB24AA25A926120250FFC3ED9FFF22ED
:100CE800E4FFFE120250600C0FEF70010E09E9706C
:050CF800F20A80EF226A
:00000001FF
